:100000000C94CC000C94AD020C94DE020C940F0303
:100010000C9440030C9471030C94A2030C94D3032E
:100020000C9404040C94F6000C94F6000C94F60066
:100030000C9454090C94F6000C94F6000C941208DD
:100040000C94F6000C94F6000C94F6000C94F60058
:100050000C94F6000C94F6000C94F6000C94ED074A
:100060000C94F6000C94C14B0C94F6000C94F60022
:100070000C94F6000C94F6000C94F6000C94F60028
:100080000C94F6000C94F6000C94F6000C94F60018
:100090000C94024C0C94F6000C94F6000C94D3498A
:1000A0000C94F6000C94F6000C94F6000C94F600F8
:1000B0000C94F6000C94F6000C94F6000C94F600E8
:1000C0000C94F6000C94F6000C94F6000021242702
:1000D0002A2D3033002225282B2E313400202326D0
:1000E000292C2F3205050505030303030101010433
:1000F00004030606060606060606010405010501B8
:1001000003020202020202010202050504040304C2
:1001100004010304070707010208101020408004AF
:1001200008102040020204081020408001028020B4
:100130004004200101020408102001408040800199
:1001400002080408800410040201000008090000ED
:10015000000000000000000000000000000000009F
:10016000000000000000000000000000000000008F
:100170000000000000000000000000000000400A35
:10018000CC0AC30D870FC00F9110E048E04DE74D3A
:10019000F64D344E394E444E11241FBECFEFD1E2FE
:1001A000DEBFCDBF18E0A0E0B2E0E4EEF3EA00E08D
:1001B0000BBF02C007900D92AA37B107D9F715E11E
:1001C000AAE7B8E001C01D92A831B107E1F711E03C
:1001D000C8E9D1E004C02297FE010E94C450CE3786
:1001E000D107C9F70E940F020C94F0510C94000043
:1001F000EF920F9381E090E064EB70E00E94C850B2
:10020000FC019093930880939208E658FF4F108268
:10021000EA57F0401086E458FF4F87E0808312923F
:10022000EB57F0401092B00B8DE39AE0BF0140E035
:1002300052E020E00E947946609192087091930804
:100240008DE39AE045E052E024E938E000E0EE2456
:100250000E94A54760919208709193088DE39AE0FF
:100260000E94C8438091190C882329F489E39AE0FD
:100270006AE072E004C089E39AE06CE172E00E94F7
:10028000221080919208909193080E9491511092AF
:1002900093081092920889E39AE06AE372E00E9460
:1002A00022100F91EF9008950F931F9389E39AE026
:1002B0006AE372E00E94221088EF98E00E94230D0A
:1002C0008FEA98E06EE10E94B30A8DE39AE061E064
:1002D00041E021E00E944C118DE39AE00E949A488F
:1002E00088EF98E00E94180D88EF98E00E94EC0BD0
:1002F0008091F80881FF1CC088EF98E062E00E94BE
:100300002E0DAB01BC0140939A0850939B0860935B
:100310009C0870939D0889EF98E024E938E004E098
:1003200010E00E949D0E89E39AE06CE572E01DC02A
:1003300082FF27C088EF98E064E00E942E0DAB0199
:10034000BC0140939A0850939B0860939C0870935B
:100350009D0889EF98E024E938E004E010E00E946D
:100360009D0E89E39AE068E672E00E94221089E31C
:100370009AE064E978E00E9422100E94F8000E944E
:1003800035041F910F9108950F931F930DE31AE009
:10039000C80161E041E021E00E944C11C8010E94C7
:1003A0009A48C80160916D0840916E080E944139D9
:1003B000C80165E772E00E940336C80160916F08CA
:1003C0000E944446C8016BE678E00E944138C801AB
:1003D00060E00E942046C8010E94C53908EF18E07D
:1003E000C80160E00E94D30B209174083091750819
:1003F0004091760850917708C80162E00E94B10BE5
:1004000020917008309171084091720850917308E2
:10041000C80164E00E94B10B1F910F9108950E94E2
:1004200097080E94C4010E945401FDCF883008F053
:1004300069C0E82FF0E0EE0FFF1FE256F74F71831F
:100440006083833089F1843028F48130A1F08230D8
:10045000F0F409C08630E9F1873009F447C08430F0
:1004600009F050C02EC0809169008C7F842B80934E
:100470006900E89A089580916900440F551F440F60
:10048000551F837F842B80936900E99A089580919A
:10049000690064E0440F551F6A95E1F78F7C842B57
:1004A00080936900EA9A08958091690036E0440FCC
:1004B000551F3A95E1F78F73842B80936900EB9A6F
:1004C000089580916A008C7F842B80936A00EC9A57
:1004D000089580916A0024E0440F551F2A95E1F7A2
:1004E0008F7C842B80936A00EE9A089580916A0035
:1004F00096E0440F551F9A95E1F78F73842B8093F4
:100500006A00EF9A0895F894883028F58330A1F0B6
:10051000843028F4813061F0823060F407C0863086
:1005200079F0873079F0843071F408C0E8980BC016
:10053000E99809C0EA9807C0EB9805C0EC9803C099
:10054000EE9801C0EF98E82FF0E0EE0FFF1FE256A3
:10055000F74F11821082789408951F920F920FB670
:100560000F920BB60F9211242F933F934F935F93EB
:100570006F937F938F939F93AF93BF93EF93FF936B
:1005800080919E0890919F08892B29F0E0919E0808
:10059000F0919F080995FF91EF91BF91AF919F91C5
:1005A0008F917F916F915F914F913F912F910F901C
:1005B0000BBE0F900FBE0F901F9018951F920F92B9
:1005C0000FB60F920BB60F9211242F933F934F93B8
:1005D0005F936F937F938F939F93AF93BF93EF93AB
:1005E000FF938091A0089091A108892B29F0E091B8
:1005F000A008F091A1080995FF91EF91BF91AF91EB
:100600009F918F917F916F915F914F913F912F912A
:100610000F900BBE0F900FBE0F901F9018951F925A
:100620000F920FB60F920BB60F9211242F933F9398
:100630004F935F936F937F938F939F93AF93BF93EA
:10064000EF93FF938091A2089091A308892B29F042
:10065000E091A208F091A3080995FF91EF91BF9155
:10066000AF919F918F917F916F915F914F913F914A
:100670002F910F900BBE0F900FBE0F901F901895EB
:100680001F920F920FB60F920BB60F9211242F9359
:100690003F934F935F936F937F938F939F93AF930A
:1006A000BF93EF93FF938091A4089091A508892BA5
:1006B00029F0E091A408F091A5080995FF91EF9128
:1006C000BF91AF919F918F917F916F915F914F916A
:1006D0003F912F910F900BBE0F900FBE0F901F9068
:1006E00018951F920F920FB60F920BB60F9211240E
:1006F0002F933F934F935F936F937F938F939F932A
:10070000AF93BF93EF93FF938091A6089091A708B2
:10071000892B29F0E091A608F091A7080995FF918F
:10072000EF91BF91AF919F918F917F916F915F9169
:100730004F913F912F910F900BBE0F900FBE0F90D6
:100740001F9018951F920F920FB60F920BB60F9233
:1007500011242F933F934F935F936F937F938F93C6
:100760009F93AF93BF93EF93FF938091A8089091CD
:10077000A908892B29F0E091A808F091A90809950A
:10078000FF91EF91BF91AF919F918F917F916F9169
:100790005F914F913F912F910F900BBE0F900FBE25
:1007A0000F901F9018951F920F920FB60F920BB6D5
:1007B0000F9211242F933F934F935F936F937F93E7
:1007C0008F939F93AF93BF93EF93FF938091AA086A
:1007D0009091AB08892B29F0E091AA08F091AB0821
:1007E0000995FF91EF91BF91AF919F918F917F916B
:1007F0006F915F914F913F912F910F900BBE0F9092
:100800000FBE0F901F9018951F920F920FB60F9268
:100810000BB60F9211242F933F934F935F936F93D7
:100820007F938F939F93AF93BF93EF93FF938091A9
:10083000AC089091AD08892B29F0E091AC08F091BB
:10084000AD080995FF91EF91BF91AF919F918F9165
:100850007F916F915F914F913F912F910F900BBEC0
:100860000F900FBE0F901F90189510927A0810925B
:100870007B0810927C0810927D080895EF92FF92F9
:100880000F931F937B018C01F894CB0181709070C2
:10089000892B19F082E00E948302E1FE03C083E00D
:1008A0000E948302E2FE03C082E00E948302E3FE14
:1008B00003C083E00E948302E4FE03C082E00E9442
:1008C0008302F3FE03C082E00E948302E5FE03C0C0
:1008D00084E00E948302F4FE03C082E00E9483024F
:1008E000F5FE03C082E00E948302F6FE03C083E0AF
:1008F0000E94830200FF03C083E00E948302809174
:100900007E0890917F08A0918008B0918108E094C2
:10091000F094009510958E219F21A023B123809300
:100920007E0890937F08A0938008B0938108789404
:100930001F910F91FF90EF900895EF92FF920F9308
:100940001F937B018C0180917E0890917F08A0917C
:100950008008B09181088E299F29A02BB12B80930C
:100960007E0890937F08A0938008B0938108C70108
:1009700081709070892B59F08BE260E00E948B09A6
:1009800082E06CE876E041E050E00E941602E1FE71
:100990000BC08CE260E00E948B0983E066E875E0A2
:1009A00040E050E00E941602E2FE0FC08BE260E0E1
:1009B0000E948B0986E260E00E948B0982E06CE86D
:1009C00076E041E050E00E941602E3FE13C08CE2A4
:1009D00060E00E948B0982E360E00E948B098CE258
:1009E00061E00E94A90983E066E875E040E050E01C
:1009F0000E941602E4FE0FC08BE260E00E948B09A9
:100A000087E260E00E948B0982E06CE876E041E0DA
:100A100050E00E941602E5FE0FC083E061E00E94F4
:100A20008B0983E061E00E94A90984E066E875E033
:100A300040E050E00E941602F3FE0FC08BE260E03F
:100A40000E948B098EE260E00E948B0982E06CE8D4
:100A500076E041E050E00E941602F4FE0FC08BE207
:100A600060E00E948B0988E060E00E948B0982E0D0
:100A70006CE876E041E050E00E941602F5FE17C0F7
:100A80008BE260E00E948B098CE260E00E948B099F
:100A900087E060E00E948B098AE060E00E948B0999
:100AA00082E06CE876E041E050E00E941602F6FE3B
:100AB00017C08BE260E00E948B098CE260E00E942C
:100AC0008B0987E060E00E948B098AE060E00E9469
:100AD0008B0983E066E875E040E050E00E94160272
:100AE00000FF0FC084E060E00E948B098CE260E0B0
:100AF0000E948B0983E066E875E040E050E00E94C8
:100B000016021F910F91FF90EF900895F894809135
:100B10007E0890917F08A0918008B091810883FFA2
:100B200026C082E30E94F409892B09F5809182088E
:100B30008F5F8093820880917A0890917B08A091C2
:100B40007C08B0917D08886080937A0890937B0838
:100B5000A0937C08B0937D08809186088F5F809376
:100B6000860868E070E080E090E00E943E0480919A
:100B70007E0890917F08A0918008B0918108A0FF25
:100B800026C084E00E94F409892B09F5809182082F
:100B90008F5F8093820880917A0890917B08A09162
:100BA0007C08B0917D08A16080937A0890937B08BF
:100BB000A0937C08B0937D08809191088F5F80930B
:100BC000910860E070E081E090E00E943E04809136
:100BD0007E0890917F08A0918008B091810885FFE0
:100BE00024C083E00E94F409892BF9F480918208E3
:100BF0008F5F8093820880917A0890917B08A09102
:100C00007C08B0917D08806280937A0890937B087D
:100C1000A0937C08B0937D08809188088F5F8093B3
:100C2000880883E061E00E94A90980917E08909184
:100C30007F08A0918008B091810881FF20C089E2DF
:100C40000E94F409892BD9F4809182088F5F8093E8
:100C5000820880917A0890917B08A0917C08B091DD
:100C60007D08826080937A0890937B08A0937C082B
:100C7000B0937D08809184088F5F80938408809171
:100C80007E0890917F08A0918008B091810896FF1E
:100C900041C080917E0890917F08A0918008B0911A
:100CA000810883FF05C082E30E94F409892B91F536
:100CB00080917E0890917F08A0918008B091810872
:100CC00085FF05C083E00E94F409892B19F5809106
:100CD00082088F5F8093820880917A0890917B08C8
:100CE000A0917C08B0917D08906480937A089093DD
:100CF0007B08A0937C08B0937D08809190088F5F5B
:100D00008093900880E090E00000019623E0883E08
:100D10009207D1F778940895F89480917E08909185
:100D20007F08A0918008B091810882FF20C086E2F0
:100D30000E94F409892BD9F0809182088F5F8093FB
:100D4000820880917A0890917B08A0917C08B091EC
:100D50007D08846080937A0890937B08A0937C0838
:100D6000B0937D08809185088F5F8093850880917E
:100D70007E0890917F08A0918008B091810884FF3F
:100D800020C087E20E94F409892BD9F08091820863
:100D90008F5F8093820880917A0890917B08A09160
:100DA0007C08B0917D08806180937A0890937B08DD
:100DB000A0937C08B0937D08809187088F5F809313
:100DC000870880917E0890917F08A0918008B0915B
:100DD000810893FF20C08EE20E94F409892BD9F08C
:100DE000809182088F5F8093820880917A08909129
:100DF0007B08A0917C08B0917D08986080937A0868
:100E000090937B08A0937C08B0937D0880918E0816
:100E10008F5F80938E0880917E0890917F08A091CB
:100E20008008B091810881709070892B51F1809178
:100E30007E0890917F08A0918008B091810896FD6E
:100E400020C089E20E94F409892BD9F080918208A0
:100E50008F5F8093820880917A0890917B08A0919F
:100E60007C08B0917D08816080937A0890937B081C
:100E7000A0937C08B0937D08809183088F5F809356
:100E8000830880917E0890917F08A0918008B0919E
:100E9000810894FF24C088E00E94F409892BF9F0AE
:100EA000809182088F5F8093820885E060E00E94D5
:100EB000A90980917A0890917B08A0917C08B09153
:100EC0007D08906180937A0890937B08A0937C08BA
:100ED000B0937D0880918F088F5F80938F088091F9
:100EE0007E0890917F08A0918008B091810895FFBD
:100EF00020C088E00E94F409892BD9F080918208F3
:100F00008F5F8093820880917A0890917B08A091EE
:100F10007C08B0917D08906280937A0890937B085A
:100F2000A0937C08B0937D08809190088F5F809398
:100F3000900880917E0890917F08A0918008B091E0
:100F4000810896FF48C080917E0890917F08A0910B
:100F50008008B091810882FF05C086E20E94F409F2
:100F6000892BC9F580917E0890917F08A091800817
:100F7000B091810884FF05C087E20E94F409892BA3
:100F800051F580917E0890917F08A0918008B091E2
:100F9000810893FF05C08EE20E94F409892BD9F4E1
:100FA000809182088F5F8093820880917A08909167
:100FB0007B08A0917C08B0917D08906480937A08AA
:100FC00090937B08A0937C08B0937D088091900853
:100FD0008F5F80939008789408951F920F920FB6B8
:100FE0000F9211248F939F93AF93BF9380910C1115
:100FF00090910D11A0910E11B0910F110196A11DAC
:10100000B11D80930C1190930D11A0930E11B0930C
:101010000F11BF91AF919F918F910F900FBE0F90C5
:101020001F9018951F920F920FB60F9211248F9355
:101030009F93AF93BF938091101190911111A09144
:101040001211B09113110196A11DB11D80931011C1
:1010500090931111A0931211B0931311BF91AF91FE
:101060009F918F910F900FBE0F901F9018956091D8
:101070000C1170910D1180910E1190910F1127E0BC
:10108000660F771F881F991F2A95D1F72EE330E04E
:1010900040E050E00E948550CA01B9010895AF9226
:1010A000BF92CF92DF92EF92FF920F931F935B015B
:1010B0006C0160910C1170910D1180910E11909145
:1010C0000F1147E0660F771F881F991F4A95D1F7C8
:1010D0002EE330E040E050E00E94855079018A0123
:1010E00060910C1170910D1180910E1190910F1162
:1010F00037E0660F771F881F991F3A95D1F72EE3C7
:1011000030E040E050E00E9485502E193F09400B2E
:10111000510B2A153B054C055D0510F31F910F91EE
:10112000FF90EF90DF90CF90BF90AF9008957894AC
:1011300084B7877F84BF10920C1110920D1110920A
:101140000E1110920F1184B5826084BD84B5816048
:1011500084BD85B5826085BD85B5816085BDEEE6BF
:10116000F0E0808181608083E1E8F0E0808182604E
:101170008083808181608083E0E8F0E0808181600D
:101180008083E1EBF0E0808184608083E1E9F0E03E
:10119000808184608083E0EBF0E0808181608083E7
:1011A000E0E9F0E0808181608083E4E6F0E0808126
:1011B0008E7F8083ECE7F0E080818F778083808171
:1011C00080648083EAE7F0E08081846080838081AE
:1011D000826080838081806880831092C100109239
:1011E000C90008959091AE08982B9093AE0880FFA7
:1011F00032C0809164008E7F8093640080917C0077
:101200008F7780937C0080917C00806480937C0049
:1012100080917A00846080937A0080917A00826065
:1012200080937A0080917A00806880937A00809120
:1012300064008F7780936400809164008B7F80933B
:101240006400809164008D7F8093640080916500CC
:101250008E7F809365000895282F20959091AE0889
:1012600092239093AE0880FF1EC080917A008F7702
:1012700080937A0080916400816080936400809103
:10128000640080688093640080916400846080932F
:1012900064008091640082608093640080916500A6
:1012A00081608093650008951F920F920FB60F9290
:1012B0000BB60F9211242F933F934F935F936F932D
:1012C0007F938F939F93AF93BF93EF93FF93F89484
:1012D00081E080937808E0E6F0E080818068808398
:1012E00080818F7B808383E060E00E94A9097894ED
:1012F000FF91EF91BF91AF919F918F917F916F91EE
:101300005F914F913F912F910F900BBE0F900FBEA9
:101310000F901F901895282F30E0C901895E9E4FCD
:10132000FC0194912C513F4FF9018491882381F065
:10133000E82FF0E0E453FF4FE491F0E0662329F456
:10134000808190958923808308958081892B808373
:101350000895482F50E0CA01865B9E4FFC012491FE
:10136000CA01895E9E4FFC0194914C515F4FFA0176
:1013700034913323C1F1222331F1233021F48091C0
:1013800080008F7705C0243031F4809180008F7DFC
:101390008093800018C0213019F484B58F7704C081
:1013A000223021F484B58F7D84BD0DC0263021F418
:1013B0008091B0008F7705C0273029F48091B0006C
:1013C0008F7D8093B000E32FF0E0EC52FF4FE4916B
:1013D000F0E0662329F48081909589238083089525
:1013E0008081892B80830895482F50E0CA01865B55
:1013F0009E4FFC012491CA01895E9E4FFC0194918D
:101400004C515F4FFA013491332319F420E030E05E
:1014100035C0222331F1233021F4809180008F7771
:1014200005C0243031F4809180008F7D809380004E
:1014300018C0213019F484B58F7704C0223021F40C
:1014400084B58F7D84BD0DC0263021F48091B0001D
:101450008F7705C0273029F48091B0008F7D80936D
:10146000B000E32FF0E0E452FF4FE491F0E0808120
:1014700020E030E0892311F021E030E0C901089537
:10148000089589E261E00E948B0988E261E00E9490
:101490008B098AE49DE00E94E14808951F93162F6E
:1014A00080917A008F7780937A0081E261E00E94D8
:1014B0008B0981E260E00E94A9098BE161E00E9452
:1014C0008B098BE160E00E94A90910FF10C08AE13E
:1014D00061E00E948B098AE160E00E94A90988E12D
:1014E00061E00E948B0988E160E00E94A90911FF78
:1014F00009C089E39AE00E947D1089E39AE063E0E5
:101500000E943F1012FF13C081E00E94464D8FE2FF
:1015100061E00E948B098FE260E00E94A90983E2EA
:1015200061E00E948B0983E260E00E94A90914FF38
:101530000EC080912B0E80FD0AC081FD08C080E3A3
:1015400061E00E948B0980E360E00E94A90913FF1B
:1015500008C089E161E00E948B0989E160E00E9496
:10156000A9091F9108950E944E0A83B7817F846064
:1015700083BF83B7816083BF83B7816083BF889552
:1015800083B78E7F83BF83B78E7F83BFEAE7F0E0A8
:10159000808180688083089508950F931F93CF936F
:1015A000DF93EC01042F6FA380E361E00E948B09BD
:1015B0001FA1113019F0103199F40DC080E361E0E2
:1015C0000E94A909013019F482E08A8B09C0002326
:1015D00039F41A8B05C080E360E00E94A9091A8AD9
:1015E000DF91CF911F910F910895DF92EF92FF92BB
:1015F0000F931F93D62E79018A0180914A0D88237B
:1016000021F48AE49DE00E94224964E670E080E0D3
:1016100090E00E944F088AE49DE06D2D0E94D6481C
:101620008AE49DE060E070E00E940F4963E373E3A9
:1016300083E590E4A80197010E94474E20E030E046
:1016400040E053E40E94FB4F23E333E343E550E4DF
:101650000E94B04E0E941D4F9B01AC018AE49DE0A8
:10166000622F0E94EB488AE49DE00E94124980911B
:101670004A0D882391F080912E0E882371F4809179
:10168000C308813051F08FEA98E00E94410A81EB53
:1016900098E060E141E00E94CD0A1F910F91FF9018
:1016A000EF90DF900895DF92EF92FF920F931F93D8
:1016B000D62E79018A0180914A0D882321F48AE48B
:1016C0009DE00E94224964E670E080E090E00E9484
:1016D0004F088AE49DE06D2D0E94D6488AE49DE083
:1016E00060E170E00E940F4963E373E383E590E4F7
:1016F000A80197010E94474E20E030E040E053E40B
:101700000E94FB4F23E333E343E550E40E94B04ED5
:101710000E941D4F9B01AC018AE49DE0622F0E9454
:10172000EB488AE49DE00E94124980914A0D88238B
:1017300091F080912E0E882371F48091C30881303E
:1017400051F08FEA98E00E94410A81EB98E060E155
:1017500041E00E94CD0A1F910F91FF90EF90DF9022
:1017600008956430E1F0653028F4613081F0623032
:10177000C9F40BC0603129F0603229F0683091F46F
:101780000AC068E205C068E207C06CE205C06CE20E
:101790000E94530B08956AE20E94F50A08956AE2D6
:1017A0000E94530B0895662319F06130A1F40FC015
:1017B0008AE161E00E94A9098091C308882359F455
:1017C00081EB98E061E041E00E94CD0A08958AE152
:1017D00060E00E94A9090895CF93DF93EC0118827D
:1017E00061E070E080E090E00E944F0885E060E0FA
:1017F0000E94A9096AE070E080E090E00E944F0832
:101800008AE060E00E94A90961E070E080E090E079
:101810000E944F0882E00E94F409892B19F0888108
:101820008160888362E070E080E090E00E944F0871
:1018300084E061E00E94A90961E070E080E090E04E
:101840000E944F0882E00E94F409892B19F08881D8
:101850008260888361E070E080E090E00E944F0841
:1018600084E060E00E94A90962E070E080E090E01E
:101870000E944F0884E061E00E94A90961E070E0E5
:1018800080E090E00E944F0882E00E94F409892BDA
:1018900019F088818460888361E070E080E090E0E6
:1018A0000E944F0884E060E00E94A90962E070E0B5
:1018B00080E090E00E944F0884E061E00E94A90966
:1018C00061E070E080E090E00E944F0882E00E94BA
:1018D000F409892B19F088818860888361E070E0C1
:1018E00080E090E00E944F0884E060E00E94A90937
:1018F00062E070E080E090E00E944F0884E061E0E8
:101900000E94A90961E070E080E090E00E944F0829
:1019100082E00E94F409892B19F088818061888314
:1019200061E070E080E090E00E944F0884E060E0B9
:101930000E94A90962E070E080E090E00E944F08F8
:1019400084E061E00E94A90961E070E080E090E03D
:101950000E944F0882E00E94F409892B19F08881C7
:101960008062888361E070E080E090E00E944F0830
:1019700084E060E00E94A90962E070E080E090E00D
:101980000E944F0884E061E00E94A90961E070E0D4
:1019900080E090E00E944F0882E00E94F409892BC9
:1019A00019F088818064888361E070E080E090E0D5
:1019B0000E944F0884E060E00E94A90962E070E0A4
:1019C00080E090E00E944F0884E061E00E94A90955
:1019D00061E070E080E090E00E944F0882E00E94A9
:1019E000F409892B19F088818068888361E070E0B0
:1019F00080E090E00E944F0884E060E00E94A90926
:101A000062E070E080E090E00E944F0868EC70E0D7
:101A100080E090E00E944F0885E061E00E94A90903
:101A20008AE061E00E94A9098881DF91CF91089541
:101A300085E060E00E94A90960E070E180E090E04C
:101A40000E943E04089585E061E00E94A90960E0DB
:101A500070E180E090E00E949D0408956830F9F004
:101A6000693038F46230B9F06430D9F0613061F433
:101A700014C0603271F0613218F4603129F407C08B
:101A8000603489F06038C9F080E090E019C081E0EE
:101A900015C082E013C084E011C083E00FC086E06F
:101AA0000DC087E00BC087E00E94F409A0E0B0E021
:101AB000BC01CD010E94494F14C085E00E94334B08
:101AC000BC0180E090E00E94494F23E333E343E50B
:101AD00050E40E94FB4F20E030EC4FE754E40E94BA
:101AE000B04E089583E061E00E948B0982E060E0DF
:101AF0000E948B0988E061E00E948B098AE061E026
:101B00000E948B0989E061E00E948B0987E060E018
:101B10000E948B0986E061E00E948B0984E061E00D
:101B20000E948B0985E061E00E948B098BE061E0F7
:101B30000E948B098AE161E00E948B0983E060E0EA
:101B40000E94A90988E060E00E94A9098AE060E09B
:101B50000E94A90989E060E00E94A90986E060E08E
:101B60000E94A90984E060E00E94A90985E060E084
:101B70000E94A9098BE060E00E94A9098AE160E067
:101B80000E94A909089588EF98E00E94720D0895B7
:101B9000FB0120E030E002C02F5F3F4F819188239E
:101BA000D9F7C9010895FB019081892F80538A30AC
:101BB00038F4292F332727FD3095205330400DC0AE
:101BC000892F8154863018F020E030E007C0292F9B
:101BD000332727FD30952753304031966081862F7B
:101BE00080538A3030F4772767FD709560537040DA
:101BF0000CC0862F8154863018F060E070E005C07C
:101C0000772767FD709567537040A4E0220F331F5C
:101C1000AA95E1F7862F820F08956833A1F1693301
:101C200080F4643341F1653338F4623301F1633396
:101C300000F56133D1F417C0663309F1673308F555
:101C40001CC0633441F1643438F4613401F162340E
:101C500000F5693351F419C0653409F16534E8F0D1
:101C6000663419F41EC081E01DC080E01BC082E014
:101C700019C083E017C084E015C085E013C086E07A
:101C800011C087E00FC088E00DC089E00BC08AE07A
:101C900009C08BE007C08CE005C08DE003C08EE07A
:101CA00001C08FE04733A1F1483380F4433341F161
:101CB000443338F44133F1F0423300F54033E1F579
:101CC0001BC0453309F1463308F51CC0423441F1CD
:101CD000433438F4493301F14933E0F0413461F5DC
:101CE0001DC0443409F14434E8F04534F9F0463479
:101CF000F9F0089591E01DC090E01BC092E019C07A
:101D000093E017C094E015C095E013C096E011C0B1
:101D100097E00FC098E00DC099E00BC09AE009C0B1
:101D20009BE007C09CE005C09DE003C09EE001C0B1
:101D30009FE08295807F890F08952F923F924F9266
:101D40005F926F927F928F929F92AF92BF92CF924B
:101D5000DF92EF92FF920F931F93DF93CF93CDB754
:101D6000DEB769970FB6F894DEBF0FBECDBF3A015C
:101D70004B011901198F088FCB01BA0120E030E027
:101D800040E050E00E94AC4E87FD02C01F8A06C0B2
:101D900097FA909497F8909421E02F8BC401B301A7
:101DA0000E94184F5B016C01CE0101969E8B8D8BBA
:101DB00044245524C601B5012AE030E040E050E05B
:101DC0000E94A7507B018C01C601B5012AE030E0DA
:101DD00040E050E00E94A750C901DA015C016D01AA
:101DE000ED89FE89E192F192FE8BED8BC2010894A0
:101DF000411C511CA114B104C104D104D9F69C01A9
:101E0000FF89FF2319F440E050E005C08DE2F101A5
:101E1000808341E050E0C901880F991FFE0131968F
:101E2000E80FF91FD101A40FB51FBE01615070402A
:101E30008081805D8D933297E617F707C9F72901F6
:101E40000894411C511C440E551E8101040D151DA2
:101E50008EE2F8018083C401B3010E94184F8827E5
:101E600077FD8095982F0E944B4F9B01AC01C401D8
:101E7000B3010E94474E380111E0812E912C20C001
:101E800020E030E040E251E40E94FB4F5B016C0136
:101E90000E94184F7B018C01B701882777FD809540
:101EA000982F0E944B4F9B01AC01C601B5010E94C7
:101EB000474EF0E3EF0EF301E0820894811C911C81
:101EC000F401E40DF51D0894611C711C288D398DF9
:101ED00028153905ACF6E20DF31D108269960FB690
:101EE000F894DEBF0FBECDBFCF91DF911F910F9150
:101EF000FF90EF90DF90CF90BF90AF909F908F902A
:101F00007F906F905F904F903F902F90089508952D
:101F10008FE261E00E948B0984E261E00E948B09FC
:101F200085E261E00E948B098FE261E00E94A909CD
:101F300084E261E00E94A90985E261E00E94A909AA
:101F400008950F931F93162F042F8FE261E00E94D4
:101F50008B0984E261E00E948B0985E261E00E94C6
:101F60008B098FE261E00E94A90984E2612F0E943F
:101F7000A90985E2602F0E94A9091F910F91089578
:101F80001092390A10923B0A08950F931F938C0107
:101F90008DE0F80160810E94434C8AE0F801608185
:101FA0000E94434C1F910F910895EF92FF920F935F
:101FB0001F93CF93DF93EC017A018B0177FF0CC065
:101FC0008DE268810E94434C10950095F094E09456
:101FD000E11CF11C011D111DC801B7012AE030E010
:101FE00040E050E008810E946A4CDF91CF911F9140
:101FF0000F91FF90EF9008950F931F93FC01DA016A
:102000008B012115310529F4842F60810E94434CF6
:1020100016C02A30310519F40E94D50F10C02031A6
:10202000310529F4842F60810E940C4D08C030E0F6
:1020300040E050E0BD01C80100810E946A4C1F9140
:102040000F9108950F931F938C01CB01F8016081CC
:102050000E94544CC8010E94C50F1F910F91089512
:10206000FC0180810E94AD4B0895FC0180810E949B
:10207000724B0895FC0180810E944E4B0895FC0133
:102080006183613019F06330B9F518C0808188230D
:1020900011F486E111C089EF98E00E94880F86E074
:1020A00061E00E948B0986E061E00E94A9098AE252
:1020B00061E00E948B098AE261E005C0808188238B
:1020C00029F486E160E00E94A909089589EF98E06B
:1020D00060E040E00E94A10F86E061E00E948B0971
:1020E00086E060E00E94A9098AE261E00E948B0913
:1020F0008AE260E00E94A9090895FC0180810E94A3
:10210000464D0895FC01262F608360E070E0CB010E
:10211000BA01422F0E94644D86E161E00E948B0962
:1021200008951092F30C1092F40C1092F70C109288
:10213000F90C0895EF92FF920F937C0182E492E0F4
:10214000E80EF91EF7016193419321937F0100830B
:1021500023E03EEFE20EF31EF70110822BE030E0A9
:10216000E20EF31EF70110822CE030E0E20EF31EC7
:10217000F701108222EE30E0E20EF31EF70110822A
:1021800023EE3FEFE20EF31E83E1F70181937F011F
:1021900088E8808322E030E0E20EF31EF70111921E
:1021A0007F01108227E130E0E20EF31E89E1F701A2
:1021B000808323E030E0E20EF31E8FE1F70181938C
:1021C0007F018EEF808326E230E0E20EF31EF701FE
:1021D000119284E081937F0188E2808327E030E0E0
:1021E000E20EF31EF70110822CE431E0E20EF31E42
:1021F000F7011192119211928CE281931192119236
:10220000119211927F01108220E83FEFE20EF31E3F
:10221000F7011182108224E330E0E20EF31EF70191
:102220001192119211921192119211921192119296
:10223000119211927F01108211821282138229E27F
:1022400030E0E20EF31EF70111927F0110822BE2C3
:102250003FEFE20EF31E92E0F701908326ED30E0AF
:10226000E20EF31E81E0F70180832BE23FEFE20EE6
:10227000F31EF701919391937F01908324E23EEF47
:10228000E20EF31EC7010E94341AC7010E94E31830
:102290000F91FF90EF9008950F9300E00E949A1025
:1022A0000F9108950F931F93CF93DF93DC018B0160
:1022B000EC01C658DD4F1982188240E0BE0106C00D
:1022C0004F5F2F5F3F4FFB0131832083FB01208154
:1022D0003181F801E20FF31F8081882389F7469549
:1022E00083E090E09983888390E0ED01C658DD4F4C
:1022F00050E00BC0FD01E20FF31FE857FD4F808156
:10230000980F2F5F3F4F3983288328813981241705
:10231000350780F3892F8095A40FB51FA957BD4FAE
:102320008C93DF91CF911F910F910895AF92BF923F
:10233000CF92DF92EF92FF920F931F93CF93DF9391
:102340007C018B0106551F4FD8018C910A5A104011
:10235000F801E855FF4F813009F024C1C22EDD2479
:10236000DA01AC0DBD1D83E28C938081813009F4CC
:1023700046C0813020F0823009F038C2AAC01196E0
:102380001C92119701571F4FF80181918F011296EE
:102390008C93129780810059104013968C93139759
:1023A000F701E658FD4F11821082EF01FCE7CF2EB6
:1023B000F2E0DF2ECE0CDF1CB70162587D4FAD017D
:1023C0000FC0FA01E20FF31FA00FB11FA20FB31F3E
:1023D0001C968C9184838881998101969983888346
:1023E00028813981F601A081B181FB018081918131
:1023F00001968A1B9B0B2817390718F3F7C1119612
:102400008C93B70166587D4FDB011D921C92EB0146
:1024100010C0FA01EA0FFB1FEC0DFD1DA00FB11F4C
:10242000A557BF4F8C9182838881998101969983AA
:102430008883A881B981A430B10558F3FB011182CA
:102440001082E701C658DD4F10C0FA01EA0FFB1FEA
:10245000EC0DFD1DA00FB11FA957BF4F8C918683B6
:1024600088819981019699838883A881B981A43054
:10247000B10558F319821882E701C658DD4FECE721
:10248000AE2EE2E0BE2EAE0CBF1C970122583D4F8F
:1024900011C0FA01E60FF71FEC0DFD1DA00FB11FD3
:1024A000A60FB71F1C968C9182878881998101960F
:1024B0009983888368817981F501A081B181F901CF
:1024C0008081918101968A1B9B0B6817790708F31D
:1024D0008DC111968C93C0E0D0E0D701A658BD4FB6
:1024E00006C0E9016F5F7F4F11967C936E936D91EB
:1024F0007C911197F801E60FF71FEF56FF4F80818F
:102500009E012F5F3F4F833261F71D921C92E701BE
:10251000C658DD4F10C0FA01EA0FFB1FEC0DFD1D80
:10252000A00FB11FAF56BF4F8C91828388819981D4
:10253000019699838883A881B981A217B30758F3BC
:1025400019821882E701C658DD4F7CE7A72E72E09A
:10255000B72EAE0CBF1C8EE792E0E80EF91E13C03A
:10256000FA01E60FF71FE20FF31FEC0DFD1DA00FA0
:10257000B11FA60FB71F1C968C9182838881998109
:1025800001969983888368817981F501A081B18161
:10259000F7018081918101968A1B9B0B681779074F
:1025A000F8F224C18081813009F446C0813020F0E6
:1025B000823009F01BC1AEC030E0FA01E20FF31F18
:1025C000108201571F4FD8018D918D0181838C910D
:1025D000005910408283F701E658FD4F11821082A6
:1025E000EF016CE7C62E62E0D62ECE0CDF1CEEE7C4
:1025F000F2E0EE0EFF1E11C0FA01E60FF71FE20F28
:10260000F31FA00FB11FA60FB71F1C968C918383D9
:102610008881998101969983888368817981F601FF
:10262000A081B181F7018081918101968A1B9B0B6A
:102630006817790708F3DAC030E0FA01E20FF31FF8
:102640008083B70166587D4FDB011D921C92EB0120
:1026500010C0FA01EA0FFB1FE20FF31FA00FB11F1A
:10266000A557BF4F8C918183888199810196998369
:102670008883A881B981A430B10558F3FB01118288
:102680001082E701C658DD4F10C0FA01EA0FFB1FA8
:10269000E20FF31FA00FB11FA957BF4F8C91858385
:1026A00088819981019699838883A881B981A43012
:1026B000B10558F319821882E701C658DD4F9CE72F
:1026C000C92E92E0D92ECE0CDF1C8EE792E0E80EE8
:1026D000F91E11C0FA01E60FF71FE20FF31FA00F5A
:1026E000B11FA60FB71F1C968C9181878881998195
:1026F00001969983888368817981F601A081B181EF
:10270000F7018081918101968A1B9B0B68177907DD
:1027100008F36CC0C22EDD24FA01EC0DFD1D808390
:10272000C0E0D0E0D701A658BD4F06C0E9016F5FF9
:102730007F4F11967C936E936D917C911197F80168
:10274000E60FF71FEF56FF4F80819E012F5F3F4F2F
:10275000833261F71D921C92E701C658DD4F10C00D
:10276000FA01EA0FFB1FEC0DFD1DA00FB11FAF56C4
:10277000BF4F8C9181838881998101969983888349
:10278000A881B981A217B30758F319821882E7010B
:10279000C658DD4F8CE7A82E82E0B82EAE0CBF1CC9
:1027A0008EE792E0E80EF91E13C0FA01E60FF71F5C
:1027B000E20FF31FEC0DFD1DA00FB11FA60FB71FF9
:1027C0001C968C9181838881998101969983888355
:1027D00068817981F501A081B181F70180819181C2
:1027E00001968A1B9B0B68177907F8F2DF91CF914E
:1027F0001F910F91FF90EF90DF90CF90BF90AF901F
:1028000008953F924F925F926F927F928F929F9224
:10281000AF92BF92CF92DF92EF92FF920F931F93EE
:10282000DF93CF9300D000D0CDB7DEB76B014A0164
:102830007901AA24A39410E022E730E0C20ED31E4F
:1028400021E3422E9DE7792E83E3382EBEE56B2EE1
:10285000ADE55A2E30C1D401A60FB71F8C9181313E
:1028600011F090E04AC04C92F70180818F5F808325
:102870008C917C926F5F7F4F9401260F371F3C83B2
:102880002B8361507040FB013296FA83E98320C0AC
:10289000EB81FC81B180418349815A814F5F5F4F59
:1028A0003296FC83EB8329813A812E5F3F4F3A8336
:1028B0002983F70180819801280F311DC901F60194
:1028C00020813181820F931F48175907A8F48B2D5F
:1028D000EB81FC8140818083F70180819801280F82
:1028E000311DC901F60120813181820F931F298199
:1028F0003A812817390760F291E08C91833109F011
:102900004DC0992309F04AC03C92F70180818F5F46
:1029100080838C917C926F5F7F4F9401260F371FCD
:102920003C832B8361507040FB013296FA83E9832C
:1029300020C0EB81FC81B180418349815A814F5F86
:102940005F4F3296FC83EB8329813A812E5F3F4FA4
:102950003A832983F70180819801280F311DC9012D
:10296000F60120813181820F931F48175907A8F47F
:102970008B2DEB81FC8140818083F7018081980160
:10298000280F311DC901F60120813181820F931F6B
:1029900029813A812817390760F291E08C918E37AE
:1029A00009F04DC0992309F04AC06C92F70180816B
:1029B0008F5F80838C917C926F5F7F4F9401260F95
:1029C000371F3C832B8361507040FB013296FA83A2
:1029D000E98320C0EB81FC81B180418349815A8128
:1029E0004F5F5F4F3296FC83EB8329813A812E5FE4
:1029F0003F4F3A832983F70180819801280F311DC9
:102A0000C901F60120813181820F931F48175907B0
:102A1000A8F48B2DEB81FC8140818083F7018081BC
:102A20009801280F311DC901F60120813181820FE3
:102A3000931F29813A812817390760F291E02C9180
:102A40002D37C1F59923B1F55C92F70180818F5F35
:102A500080838C912C936F5F7F4FF401E60FF71FFB
:102A60006F5F7F4F17C0B1804183AB014F5F5F4FF6
:102A700032966E5F7F4FD7018C919801280F311DE0
:102A8000C901D6012D913C91820F931F4817590718
:102A900088F48B2D40818083D7018C919801280F79
:102AA000311DC901D6012D913C91820F931F6817EA
:102AB0007907C8F2A3946A2D70E0F701808198012C
:102AC000280F311DC901D6012D913C91820F931F12
:102AD0006817790708F4BFCE0F900F900F900F90F2
:102AE000CF91DF911F910F91FF90EF90DF90CF90EA
:102AF000BF90AF909F908F907F906F905F904F901E
:102B00003F900895DF92EF92FF920F931F93CF9320
:102B1000DF93890180E090E0F3E1DF2EEEE7EE2E17
:102B200031E1F32E37C02F5F3F4F9C919D3731F03D
:102B30001196319624173507B0F32DC024173507A9
:102B400050F5E9012196E60FF71F8181833361F08B
:102B5000843318F4813369F405C08D3549F08E351E
:102B600041F404C0FC9205C0DC9203C0EC9201C0A9
:102B70009C9341505040F901E00FF11FE60FF71F01
:102B800002C0818180832F5F3F4F3196CE01241791
:102B90003507B8F39C012417350738F4F901E00F25
:102BA000F11FDB01AE0FBF1FC0CFDF91CF911F918F
:102BB0000F91FF90EF90DF900895EF92FF920F93A7
:102BC0001F93CF93DF938C01EB017A01FC01E65850
:102BD000FD4F2D5F3F4F3183208323503040A0E0D5
:102BE000B0E0AF010BC0FE01E60FF71F8081A80F18
:102BF000B11D6F5F7F4FFA0171836083FA016081BD
:102C000071816E157F0578F3AF3FB10521F0AF3FBD
:102C100011F081E008C008521E4FC20FD31F8C81F3
:102C2000F801808380E0DF91CF911F910F91FF9099
:102C3000EF900895EF92FF920F931F93CF93DF933E
:102C4000EC01CA5BDD4FE8808DEEE80E24978881A9
:102C5000C254D240813009F0C9C0CD5DDE4FF8804A
:102C6000C352D140FA948E0106581D4FD8011D92CF
:102C70001C92B8012F2D30E087E290E0289FA00140
:102C8000299F500D389F500D11244C0F5D1F11C00E
:102C9000FA01EA0FFB1FE05AFF4FAC0FBD1FA85B04
:102CA000BD4F8C918083FB0180819181019691833E
:102CB0008083FB01A081B181A230B10548F3D80126
:102CC0001D921C92AE0146585D4F2F2D30E087E2D9
:102CD00090E0289FB001299F700D389F700D11243E
:102CE0006C0F7D1F11C0FB01EA0FFB1FEE59FF4F58
:102CF000AC0FBD1FA65BBD4F8C918083FA01808114
:102D00009181019691838083FA01A081B181A430E1
:102D1000B10548F311821082BE0166587D4F2F2DF8
:102D200030E087E290E0289FA001299F500D389F56
:102D3000500D11244C0F5D1F12C0FA01EA0FFB1F4A
:102D4000EA59FF4FAC0FBD1FA25BBD4F8C91808332
:102D5000DB018D919C91119701968D939C93FB01C2
:102D6000A081B181A430B10540F387E290E0289FB3
:102D7000F001299FF00D389FF00D1124EC0FFD1F7D
:102D8000EA57FF4FCE5ADD4F8881C255D24080832B
:102D9000E658F040AE014A5B5D4FDA018D919C919F
:102DA0000D9720F1DB011D921C929E0126583D4F8C
:102DB000BA01AF0111C0FA01EA0FFB1FE659FF4F3C
:102DC000AC0FBD1FAD5ABD4F8C918083F90180813E
:102DD0009181019691838083F901A081B181FB01EA
:102DE000808191810C97A817B90728F3CE5BDD4F3E
:102DF0008881C254D2408250843008F047C1CD5DF2
:102E0000DE4FF880C352D140FA948E0106581D4F10
:102E1000D8011D921C92B8012F2D30E087E290E07E
:102E2000289FA001299F500D389F500D11244C0F51
:102E30005D1F11C0FA01EA0FFB1FE05AFF4FAC0FF4
:102E4000BD1FA85BBD4F8C918083FB018081918168
:102E5000019691838083FB01A081B181A230B105ED
:102E600048F3D8011D921C92AE0146585D4F2F2D9C
:102E700030E087E290E0289FB001299F700D389FD5
:102E8000700D11246C0F7D1F11C0FB01EA0FFB1F99
:102E9000EE59FF4FAC0FBD1FA65BBD4F8C918083D9
:102EA000FA0180819181019691838083FA01A0814A
:102EB000B181A430B10548F311821082AE014658A9
:102EC0005D4F2F2D30E087E290E0289FB001299FD1
:102ED000700D389F700D11246C0F7D1F12C0FB0107
:102EE000EA0FFB1FEA59FF4FAC0FBD1FA25BBD4F9E
:102EF0008C918083DA018D919C91119701968D932D
:102F00009C93FA01A081B181A430B10540F31182F4
:102F10001082AE0146585D4F0E2D10E02F2D30E08F
:102F200087E290E0289FB001299F700D389F700DB7
:102F300011246C0F7D1F12C0FB01EA0FFB1FE65925
:102F4000FF4FAC0FBD1FAE5ABD4F8C918083DA018D
:102F50008D919C91119701968D939C93FA01A0817C
:102F6000B181A017B10740F311821082BE016658EB
:102F70007D4F2F2D30E087E290E0289FA001299F10
:102F8000500D389F500D11244C0F5D1F14C0FA01D5
:102F9000EA0FFB1FE258FF4FAC0FBD1FA00FB11F80
:102FA000AD5ABD4F8C918083DB018D919C9111971F
:102FB00001968D939C93FB01A081B181A230B10554
:102FC00030F387E290E0289FD001299FB00D389F11
:102FD000B00D1124AC0FBD1FA058BF4FFE01EE0D68
:102FE000F11DEB5AFD4F81918D9380818C93A158F7
:102FF000B040FB0111821082AE0146585D4FBD0109
:1030000014C0FB01EA0FFB1FEE57FF4FAC0FBD1FB3
:10301000A00FB11FA95ABD4F8C918083DA018D9109
:103020009C91119701968D939C93FA01A081B18197
:10303000A230B10530F311821082BE0166587D4F77
:1030400087E290E0289FA001299F500D389F500DE6
:1030500011244C0F5D1F14C0FA01EA0FFB1FEC573F
:10306000FF4FAC0FBD1FA00FB11FA75ABD4F8C91D2
:103070008083DB018D919C91119701968D939C9398
:10308000FB01A081B181A230B10530F3DF91CF9176
:103090001F910F91FF90EF900895CF92DF92EF92E2
:1030A000FF920F931F93CF93DF93EC016B017A0193
:1030B000B901FC01E658FD4F0D5F1F4F11830083DE
:1030C00003501040A0E0B0E09F010BC0F601E40FF8
:1030D000F51F8081A80FB11D4F5F5F4FF90151832C
:1030E0004083F901408151814617570778F3AF3F7C
:1030F000B10519F0AF3F09F05AC0F601E00FF11F1A
:103100009581D70115968C911597981709F04FC0A6
:10311000968116968C91981709F049C09B01201B47
:10312000310B2930310529F48781882309F442C005
:103130003EC087818823D9F5FE01E658FD4F1182F4
:103140001082BF012950304012C0FE01E40FF51F6C
:10315000E85BFD4FD601A40FB51FA00FB11F189655
:103160008C9180834F5F5F4FFB0151834083DB0174
:103170004D915C914217530740F3CA5BDD4F398391
:103180002883C654D240F70185818E3491F486811C
:10319000843479F42230310530F0FE01ED5DFE4FCC
:1031A00080818F5F8083CE010E941A1602C081E069
:1031B00001C080E0DF91CF911F910F91FF90EF90C0
:1031C000DF90CF900895FC01E658FD4F11821082E8
:1031D000DF010BC0FC01E20FF31FE857FD4F108227
:1031E0002F5F3F4F11963C932E932D913C91119759
:1031F0002E31310578F30895CF92DF92EF92FF924E
:103200000F931F93CF93DF936C01FC01E658FD4FA2
:10321000118210828F01E62EFF24E701CC0FDD1F03
:10322000CC0FDD1FCE0DDF1D1CC0EC0FFD1F3B962C
:10323000EE0FFF1FEC0DFD1D808191810E949151C9
:10324000D8018D919C911197FE01E80FF91F3B96D3
:10325000EE0FFF1FEC0DFD1D1182108201968D9364
:103260009C93D801ED91FC91E530F105F0F28701D6
:10327000000F111F0C0D1D1D075B1F4FD801ED9195
:10328000FC9115AA16AA17AA10AECF010E9491515F
:10329000F80111821082F601ED5AFF4F80818150B2
:1032A0008083DF91CF911F910F91FF90EF90DF907E
:1032B000CF900895AF92BF92CF92DF92FF920F937B
:1032C0001F93CF93DF936C01FF2460E070E08C01CB
:1032D00006581D4FD8016D937C93EB01AA96CC0F35
:1032E000DD1FCC0DDD1D23C05F010894A11CB11CA6
:1032F000A881B981A555BF4FBB96EE0FFF1FEC0DFE
:10330000FD1D0190F081E02DE555FF4F2D913D9180
:103310004D915C9180819181A281B3818217930745
:10332000A407B50754F4F394F801B182A082D80140
:10333000ED91FC91E430F105B8F2B4E0FB1621F414
:10334000F62E65E070E002C0F62EF3946F5F7F4FBB
:103350006530710508F4BECF0F2D10E0065D1F4FDC
:10336000000F111F0C0D1D1DF801808191810E941D
:103370009151D8011D921C928F2DDF91CF911F91F9
:103380000F91FF90DF90CF90BF90AF900895AF92D4
:10339000BF92CF92DF92FF920F931F93CF93DF9351
:1033A0006C01FF2460E070E08C0106581D4FD801CD
:1033B0006D937C93EB01AA96CC0FDD1FCC0DDD1D28
:1033C00023C05F010894A11CB11CA881B981A55537
:1033D000BF4FBB96EE0FFF1FEC0DFD1D0190F0815E
:1033E000E02DE555FF4F2D913D914D915C918081F0
:1033F0009181A281B381281739074A075B0754F4EA
:10340000F394F801B182A082D801ED91FC91E430EF
:10341000F105B8F2B4E0FB1621F4F62E65E070E099
:1034200002C0F62EF3946F5F7F4F6530710508F48C
:10343000BECF0F2D10E0065D1F4F000F111F0C0DAA
:103440001D1DF801808191810E949151D8011D922A
:103450001C928F2DDF91CF911F910F91FF90DF90E4
:10346000CF90BF90AF9008950F931F93CF93DF93AA
:103470008C01FC01E658FD4F11821082EF0116C04D
:10348000BA96EE0FFF1FE00FF11F808191810E941D
:103490009151888199818A96FC01EE0FFF1FE00F00
:1034A000F11F11821082899799838883E881F981BD
:1034B000E530F10528F3DF91CF911F910F91089529
:1034C000AF92BF92CF92DF92EF92FF920F931F9332
:1034D000CF93DF93EC0109E4A02EB12CA80EB91E06
:1034E000EE24FF241AE7C12E12E0D12EC80ED91EF9
:1034F000D6011D921C928701000F111F000F111F92
:103500000E0D1F1D1CC0E00FF11F3B96EE0FFF1F9D
:10351000EC0FFD1F808191810E949151F601808105
:103520009181F801E80FF91F3B96EE0FFF1FEC0F9A
:10353000FD1F118210820196D6018D939C93D601B6
:10354000ED91FC91E530F105F0F2D501ED91FC91A2
:1035500015AA16AA17AA10AECF010E949151F50123
:10356000119211925F010894E11CF11CF5E0EF1635
:10357000F10409F0BDCFCD5ADF4F1882C65ADD4F96
:10358000188222961882DF91CF911F910F91FF90A0
:10359000EF90DF90CF90BF90AF900895AF92BF9221
:1035A000CF92DF92EF92FF920F931F93CF93DF930F
:1035B000EC01FC01E355FD4F108260E070E01AE77A
:1035C000A12E12E0B12EA80EB91E7F01D5016D9378
:1035D0007C938B01000F111F0C0F1D1F075B1F4FEA
:1035E00028C0D8018D919C916F010894C11CD11CF9
:1035F000F601EE0FFF1FEC0FFD1FE75BFF4F019081
:10360000F081E02DDC01D5962D913D914D915C919D
:10361000D89785A996A9A7A9B0AD281739074A0751
:103620005B076CF4F70180818F5F8083D501CD92B9
:10363000DC92D501ED91FC91E430F10590F2F701B7
:103640008081843021F4608365E070E004C0862FBF
:103650008F5FD7018C936F5F7F4F6530710508F4E2
:10366000B5CFFE01E658FD4F118210828F017DEA31
:10367000E72E72E0F72EEC0EFD1E2FC0F7018081C1
:1036800090E0FC01EE0FFF1FEE0FFF1FE80FF91F88
:10369000E20FF31F3B96EE0FFF1FEC0FFD1F808123
:1036A00091810E949151D7018C9190E0FC01EE0F25
:1036B000FF1FEE0FFF1FE80FF91FD8018D919C919E
:1036C0001197E80FF91F3B96EE0FFF1FEC0FFD1F40
:1036D0001182108201968D939C93F8012081318193
:1036E0002530310558F2D701EC91F0E0EE0FFF1FC5
:1036F000EC0FFD1FE75BFF4F0190F081E02D15AA55
:1037000016AA17AA10AEEC91F0E0EE0FFF1FEC0F17
:10371000FD1FE75BFF4F808191810E949151D7018E
:10372000EC91F0E0EE0FFF1FEC0FFD1FE75BFF4F8A
:1037300011821082FE01ED5AFF4F808181508083FB
:10374000C155DD4F1882DF91CF911F910F91FF90EE
:10375000EF90DF90CF90BF90AF9008952F923F925F
:103760004F925F926F927F928F929F92AF92BF9291
:10377000CF92DF92EF92FF920F931F93DF93CF933D
:10378000CDB7DEB760970FB6F894DEBF0FBECDBFE2
:103790007C016B01FC01E658FD4F118210822FEA7B
:1037A00032E0E20EF31ED7018C9121E53DEFE20EEF
:1037B000F31E882311F1DF0110C0F901EE0FFF1F86
:1037C000EE0DFF1DE75BFF4F80819181892B59F042
:1037D0002F5F3F4F11963C932E932D913C91119763
:1037E0002530310550F34DEA52E0E40EF51ED701C5
:1037F0002C93E3E5FDEFEE0EFF1E2AE732E0E20E2A
:10380000F31ED7011D921C92E8ECFFEFEE0EFF1E97
:10381000D7018C91EEEBFDEFEE0EFF1E813079F0BB
:1038200026E432E0E20EF31ED7018D919C91EAEB83
:10383000FDEFEE0EFF1E0C9770F50C94A82D20E8FE
:1038400032E0E20EF31ED7018C91E0E8FDEFEE0EC0
:10385000FF1E882379F426E432E0E20EF31ED7013E
:103860008D919C91EAEBFDEFEE0EFF1E059798F40B
:103870000C94A82D813079F426E432E0E20EF31E98
:10388000D7018D919C91EAEBFDEFEE0EFF1E0B9799
:1038900010F40C94A82D00E010E06624882477240E
:1038A0009924B70166587D4FE2E44E2EE2E05E2E89
:1038B0004E0C5F1C51E8252E52E0352E2E0C3F1C7D
:1038C000970120583D4F3E872D87DB011D921C92AA
:1038D000F801EE0FFF1FEE0DFF1DE75BFF4F01909C
:1038E000F081E02D85A996A9A7A9B0AD18161906F3
:1038F0001A061B060CF08CC3D2018C91813009F0A2
:10390000D0C1AD85BE858C91882309F0E1C0D60178
:1039100014969C9114978081981709F079C3AA2472
:10392000BB2416968C91833219F431E0A32EB12C6E
:1039300096012A0D3B1DD90116968C91DB011D9233
:103940001C928130A9F0813020F0823009F088C0CB
:1039500070C09389D90117968C911797981709F021
:103960007FC0948918968C91981709F079C07CC013
:10397000FB0111821082A801440F551F4E0D5F1DDF
:10398000475B5F4F17C0FA01A081B181A20FB31F3F
:10399000F601E20FF31FEA0DFB1D1B969C91878138
:1039A000981719F0882483940BC02F5F3F4FDB01D9
:1039B0002D933C93FB01208131812430310518F394
:1039C000DB011D921C92A801440F551F4E0D5F1D77
:1039D000475B5F4F14C0FA01A081B181A20FB31FF2
:1039E000F601E20FF31FEA0DFB1D1F969C918385E4
:1039F0009817A1F52F5F3F4FDB012D933C93FB01FF
:103A0000208131812430310530F325C0992787FD8D
:103A10009095F601E40FF51FEA0DFB1D278130E0BC
:103A200082179307D9F44F5F5F4FFB0151834083A7
:103A300007C0D801AA0FBB1FAE0DBF1DA75BBF4FAC
:103A4000FB0140815181ED91FC911197E40FF51F2D
:103A500085898332D9F6882039F002C0882483947E
:103A6000F1E06F1609F0D4C2702E21E0A216B10465
:103A700079F4E02FF0E0EE0FFF1FEE0DFF1DE75B86
:103A8000FF4F0190F081E02DD60115968C9182AF09
:103A9000E72DF0E0EE0FFF1FEE0DFF1DE75BFF4F80
:103AA000A081B181DB968C91DB978F5FDB968C9345
:103AB0000190F081E02DD60112962C91129783A9E6
:103AC00094A9820F911D94AB83AB15969C90E3C093
:103AD000813009F09DC2D6011A969C911A97808177
:103AE000981709F095C2AA24BB241C968C918332A6
:103AF00019F4B1E0AB2EB12C96012A0D3B1DD90172
:103B00001C968C91DB011D921C928130A9F08130B2
:103B100020F0823009F088C070C09389D9011D96C9
:103B20008C911D97981709F07FC094891E968C91EF
:103B3000981709F079C07CC0FB0111821082A8019E
:103B4000440F551F4E0D5F1D475B5F4F17C0FA01B5
:103B5000A081B181A20FB31FF601E20FF31FEA0D9E
:103B6000FB1D1B969C918585981719F088248394DA
:103B70000BC02F5F3F4FDB012D933C93FB01208156
:103B800031812430310518F3DB011D921C92A8010C
:103B9000440F551F4E0D5F1D475B5F4F14C0FA0168
:103BA000A081B181A20FB31FF601E20FF31FEA0D4E
:103BB000FB1D1F969C9181899817A1F52F5F3F4FA0
:103BC000DB012D933C93FB012081318124303105B1
:103BD00030F325C0992787FD9095F601E40FF51F76
:103BE000EA0DFB1D258530E082179307D9F44F5F5E
:103BF0005F4FFB015183408307C0D801AA0FBB1F51
:103C0000AE0DBF1DA75BBF4FFB0140815181ED9100
:103C1000FC911197E40FF51F85898332D9F688202E
:103C200039F002C088248394F1E06F1609F0F0C1E6
:103C3000702E21E0A216B10479F4E02FF0E0EE0F2F
:103C4000FF1FEE0DFF1DE75BFF4F0190F081E02DA0
:103C5000D6011B968C9182AFE72DF0E0EE0FFF1F8F
:103C6000EE0DFF1DE75BFF4FA081B181DB968C91CC
:103C7000DB978F5FDB968C930190F081E02DD6016E
:103C800018962C91189783A994A9820F911D94AB33
:103C900083AB1B969C909A94B4E0B91508F0B4C11C
:103CA000F8C68250843008F0B3C1D1018C918823CA
:103CB00009F0D2C0D6011B969C911B978081981762
:103CC00009F0A6C1AA24BB241D968C91833219F455
:103CD00031E0A32EB12C96012A0D3B1DD9011D9672
:103CE0008C91DB011D921C928130A9F0813020F073
:103CF000823009F088C070C09389D9011E968C91DA
:103D00001E97981709F07FC094891F968C91981779
:103D100009F079C07CC0FB0111821082A801440F18
:103D2000551F4E0D5F1D475B5F4F17C0FA01A08105
:103D3000B181A20FB31FF601E20FF31FEA0DFB1DC5
:103D40001B969C918685981719F0882483940BC044
:103D50002F5F3F4FDB012D933C93FB01208131818D
:103D60002430310518F3DB011D921C92A801440F89
:103D7000551F4E0D5F1D475B5F4F14C0FA01A081B8
:103D8000B181A20FB31FF601E20FF31FEA0DFB1D75
:103D90001F969C9182899817A1F52F5F3F4FDB01F9
:103DA0002D933C93FB01208131812430310530F388
:103DB00025C0992787FD9095F601E40FF51FEA0DC0
:103DC000FB1D268530E082179307D9F44F5F5F4FC4
:103DD000FB015183408307C0D801AA0FBB1FAE0D62
:103DE000BF1DA75BBF4FFB0140815181ED91FC914D
:103DF0001197E40FF51F85898332D9F6882039F0B1
:103E000002C088248394F1E06F1609F001C1702E7E
:103E100021E0A216B10479F4E02FF0E0EE0FFF1FCD
:103E2000EE0DFF1DE75BFF4F0190F081E02DD60105
:103E30001C968C9182AFE72DF0E0EE0FFF1FEE0D88
:103E4000FF1DE75BFF4F0190F081E02D83AD8F5F99
:103E500083AFF6019484D3C0823009F0D9C0D60173
:103E600051969C9151978081981709F0D1C0AA244E
:103E7000BB2453968C91833219F4B1E0AB2EB12C54
:103E800096012A0D3B1DD90153968C91DB011D92A1
:103E90001C928130A9F0813020F0823009F088C076
:103EA00070C09389D90154968C915497981709F052
:103EB0007FC0948955968C91981709F079C07BC082
:103EC000FB0111821082A801440F551F4E0D5F1D8A
:103ED000475B5F4F17C0FA01A081B181A20FB31FEA
:103EE000F601E20FF31FEA0DFB1D1B969C918489DE
:103EF000981719F0882483940BC02F5F3F4FDB0184
:103F00002D933C93FB01208131812430310518F33E
:103F1000DB011D921C92A801440F551F4E0D5F1D21
:103F2000475B5F4F14C0FA01A081B181A20FB31F9C
:103F3000F601E20FF31FEA0DFB1D1F969C91808D89
:103F40009817A1F52F5F3F4FDB012D933C93FB01A9
:103F5000208131812430310530F325C0992787FD38
:103F60009095F601E40FF51FEA0DFB1D248930E062
:103F700082179307D9F44F5F5F4FFB015183408352
:103F800007C0D801AA0FBB1FAE0DBF1DA75BBF4F57
:103F9000FB0140815181ED91FC911197E40FF51FD8
:103FA00085898332D9F6882031F002C08824839431
:103FB000F1E06F1669F5702E21E0A216B10479F4D4
:103FC000E02FF0E0EE0FFF1FEE0DFF1DE75BFF4F50
:103FD0000190F081E02DD60152968C9182AFE72DB1
:103FE000F0E0EE0FFF1FEE0DFF1DE75BFF4F0190AE
:103FF000F081E02D83AD8F5F83AFF60192889A94B4
:10400000F4E0F91508F445C505E010E06624639472
:104010000F5F1F4F0530110508F457CC2AE732E037
:10402000E20EF31ED7011D921C92E6E8FDEFEE0EA4
:10403000FF1E662009F015C6870103551D4FD801E4
:104040007C90EFEAF2E0EE0EFF1E81E0D7018C9348
:10405000E4EAFDEFEE0EFF1ED7018C91EDEAFFEFD3
:10406000EE0EFF1E853028F0C7010E94CE1AD8013F
:104070007C90F701ED5AFF4F80818F5F8083A72CE2
:10408000BB2481E090E06EE370E00E94C850FC0128
:104090002501440C551C4E0C5F1C29E430E0420EF7
:1040A000531ED2018D939C93009709F4F8C522E426
:1040B00032E0E20EF31ED7018C912EEB3DEFE20EC3
:1040C000F31E813009F084C240E852E0E40EF51E90
:1040D000D7018C9120E83DEFE20EF31E882309F012
:1040E00022C112A6D201ED91FC91D60114968C91B9
:1040F0008083F201008111810E943708D801D59692
:104100006D937D938D939C93D897F701E658FD4F5F
:10411000118210829F01A20111C0FA016081718198
:104120006A0F7B1FAC0DBD1D8C91DB0119968C9322
:10413000F90180819181019691838083F901A081A9
:10414000B181A230B10548F340E050E0D6011696A7
:104150008C91833211F441E050E0D501AA0FBB1FCE
:10416000AE0DBF1DA75BBF4F2D913C911197B601BE
:10417000640F751FFB018681F90181A797012658FD
:104180003D4FF901118210820D911C911197F80198
:1041900081A5813089F0813020F0823009F089C01A
:1041A00063C0FB018781F801838BED91FC91DB01FA
:1041B00018968C91848B7DC0F9011182108249017F
:1041C000BD0114C0FB01008111810A0F1B1FAC0D42
:1041D000BD1DA40FB51F17968C91D8011B968C930B
:1041E000F40180819181019691838083F401A08103
:1041F000B181A430B10530F3D9011D921C92970111
:1042000026583D4FB501660F771F6E0D7F1D675B0A
:104210007F4F14C0FB01008111810A0F1B1FAC0DE1
:10422000BD1DA40FB51F1B968C91D8011F968C93B2
:10423000F90180819181019691838083F901A081A8
:10424000B181A430B10530F334C0ED91FC911197E8
:10425000E80FF91F258BFB018081918101969183E5
:104260008083459710F00CC0B901FB0180819181DA
:10427000F601E80FF91FE40FF51F2781233229F714
:10428000F501EE0FFF1FEE0DFF1DE75BFF4F0190E5
:10429000F081E02D2AE732E0E20EF31ED7018D9186
:1042A0009C9126E83DEFE20EF31EE80FF91F83E232
:1042B000858B4130510571F4F501EE0FFF1FEE0DB6
:1042C000FF1DE75BFF4F0190F081E02DD6011596B1
:1042D0008C9182AFD501AA0FBB1FAE0DBF1DA75B8E
:1042E000BF4FED91FC91119791E093AFF60195804E
:1042F0009A94F4E0F91508F4CCC32D913C911197F0
:10430000F6018281F90183AB14AAF6018381F901D8
:1043100082ABED91FC9182A98150823010F493A779
:10432000A0C413A69EC4813009F09BC482A7D20109
:10433000ED91FC91D6011A968C918083F201008157
:1043400011810E943708D801D5966D937D938D9386
:104350009C93D897A70146585D4FFA0111821082AD
:104360009A01B20111C0FB01008111810A0F1B1FCC
:10437000AC0DBD1D8C91D80115968C93F9018081EF
:104380009181019691838083F901A081B181A4304C
:10439000B10548F3DA011D921C92970126583D4F52
:1043A000A501440F551F4E0D5F1D475B5F4F12C0A7
:1043B000FA01608171816A0F7B1FAC0DBD1D1496DF
:1043C0008C91DB0111968C93F9018081918101968A
:1043D00091838083F901A081B181A430B10540F3BC
:1043E00060E070E0D6011C968C91833211F461E09C
:1043F00070E0D501AA0FBB1FAE0DBF1DA75BBF4F5D
:104400002D913C911197A601460F571FFA01848503
:10441000F90181A7970126583D4FF90111821082B9
:104420000D911C911197F80181A5813089F081309F
:1044300020F0823009F089C063C0FA018585F80157
:10444000838BED91FC91DA011E968C91848B7DC05B
:10445000F901118210824901AD0114C0FA010081F5
:1044600011810A0F1B1FAC0DBD1DA60FB71F1D9696
:104470008C91D8011B968C93F401808191810196D7
:1044800091838083F401A081B181A430B10530F320
:10449000D9011D921C92970126583D4FA501440F4A
:1044A000551F4E0D5F1D475B5F4F14C0FA01008121
:1044B00011810A0F1B1FAC0DBD1DA60FB71F519612
:1044C0008C91D8011F968C93F9018081918101967E
:1044D00091838083F901A081B181A430B10530F3CB
:1044E00034C0ED91FC911197E80FF91F258BFA016B
:1044F00080819181019691838083459710F00CC053
:10450000A901FA0180819181F601E80FF91FE60FF8
:10451000F71F2585233229F7F501EE0FFF1FEE0D5A
:10452000FF1DE75BFF4F0190F081E02D2AE732E0AD
:10453000E20EF31ED7018D919C9126E83DEFE20E2D
:10454000F31EE80FF91F83E2858BD501AA0FBB1F6D
:10455000AE0DBF1DA75BBF4F2D913C911197F6018A
:104560008085F90183AB14AAF6018185F90182AB3C
:10457000ED91FC9182A98150823018F481E083A7EB
:1045800001C013A66130710571F4F501EE0FFF1F34
:10459000EE0DFF1DE75BFF4F0190F081E02DD6018E
:1045A0001B968C9182AFAA0CBB1CAE0CBF1CE9E41D
:1045B000F0E0AE0EBF1ED501ED91FC9181E083AF1E
:1045C000F60193849A94F4E0F91508F04AC361C2A5
:1045D0008250843008F045C321E832E0E20EF31E39
:1045E000D7018C912FE73DEFE20EF31E882309F0EF
:1045F00066C1D6011B968C918083F20100811181E6
:104600000E943708D801D5966D937D938D939C9326
:10461000D89740E050E0F6018585833211F441E0FF
:1046200050E0D501AA0FBB1FAE0DBF1DA75BBF4F4A
:104630002D913C911197B601640F751FFB01858583
:10464000F90181A7970126583D4FF9011182108287
:104650000D911C911197F80181A5813089F081306D
:1046600020F0823009F089C063C0FB018685F80123
:10467000838BED91FC91DB011F968C91848B7DC027
:10468000F901118210824901BD0114C0FB010081B2
:1046900011810A0F1B1FAC0DBD1DA40FB51F1E9667
:1046A0008C91D8011B968C93F401808191810196A5
:1046B00091838083F401A081B181A430B10530F3EE
:1046C000D9011D921C92970126583D4FB501660FE6
:1046D000771F6E0D7F1D675B7F4F14C0FB0100814C
:1046E00011810A0F1B1FAC0DBD1DA40FB51F5296E3
:1046F0008C91D8011F968C93F9018081918101964C
:1047000091838083F901A081B181A430B10530F398
:1047100034C0ED91FC911197E80FF91F258BFB0137
:1047200080819181019691838083459710F00CC020
:10473000B901FB0180819181F601E80FF91FE40FB7
:10474000F51F2685233229F7F501EE0FFF1FEE0D29
:10475000FF1DE75BFF4F0190F081E02D2AE732E07B
:10476000E20EF31ED7018D919C9126E83DEFE20EFB
:10477000F31EE80FF91F83E2858B4130510571F478
:10478000F501EE0FFF1FEE0DFF1DE75BFF4F0190E0
:10479000F081E02DD6011C968C9182AFD501AA0F35
:1047A000BB1FAE0DBF1DA75BBF4FED91FC911197D5
:1047B00081E083AFF60194849A94F4E0F91508F44B
:1047C00068C1970126583D4FF90111821082890175
:1047D000AD0111C0FA01608171816A0F7B1FAC0DC0
:1047E000BD1D8C91DB0115968C93F8018081918120
:1047F000019691838083F801A081B181A430B10535
:1048000048F3D9011D921C92970126583D4FA501EE
:10481000440F551F4E0D5F1D475B5F4F12C0FA01DD
:10482000608171816A0F7B1FAC0DBD1D14968C9148
:10483000DB0111968C93F90180819181019691831E
:104840008083F901A081B181A430B10540F31182C8
:104850001082970126583D4FA501440F551FD701DF
:10486000A40FB51FA75BBF4F11C06D917C9111972D
:10487000680F791F8C0D9D1DFC018085FB018187D0
:10488000F90180819181019691838083F901808172
:1048900091818230910548F3D701A40FB51FA75B22
:1048A000BF4FED91FC91119713A62D913C9111975B
:1048B000F6018285F90182ABED91FC91CDC1823088
:1048C00009F0CFC1D60151968C918083F20100810D
:1048D00011810E943708D801D5966D937D938D93F1
:1048E0009C93D89740E050E0F6018389833211F41D
:1048F00041E050E0D501AA0FBB1FAE0DBF1DA75B65
:10490000BF4F2D913C911197B601640F751FFB01AC
:104910008389F90181A7970126583D4FF90111823A
:1049200010820D911C911197F80181A5813089F0B9
:10493000813020F0823009F089C063C0FB01848996
:10494000F801838BED91FC91DB0155968C91848B62
:104950007DC0F901118210824901BD0114C0FB0123
:10496000008111810A0F1B1FAC0DBD1DA40FB51FC7
:1049700054968C91D8011B968C93F401808191817F
:10498000019691838083F401A081B181A430B105A7
:1049900030F3D9011D921C92970126583D4FB50165
:1049A000660F771F6E0D7F1D675B7F4F14C0FB0185
:1049B000008111810A0F1B1FAC0DBD1DA40FB51F77
:1049C00058968C91D8011F968C93F9018081918122
:1049D000019691838083F901A081B181A430B10552
:1049E00030F334C0ED91FC911197E80FF91F258B3E
:1049F000FB0180819181019691838083459710F01E
:104A00000CC0B901FB0180819181F601E80FF91F0B
:104A1000E40FF51F2489233229F7F501EE0FFF1F5C
:104A2000EE0DFF1DE75BFF4F0190F081E02D2AE7BF
:104A300032E0E20EF31ED7018D919C9126E83DEF06
:104A4000E20EF31EE80FF91F83E2858B413051051A
:104A500071F4F501EE0FFF1FEE0DFF1DE75BFF4F39
:104A60000190F081E02DD60152968C9182AFD50154
:104A7000AA0FBB1FAE0DBF1DA75BBF4FED91FC91F1
:104A8000119781E083AFF60192889A94F4E0F915CA
:104A900018F4C701672D2BC5970126583D4FF90122
:104AA000118210828901AD0111C0FA01608171810A
:104AB0006A0F7B1FAC0DBD1D8C91DB0115968C938D
:104AC000F80180819181019691838083F801A08112
:104AD000B181A430B10548F3D9011D921C92970110
:104AE00026583D4FA501440F551F4E0D5F1D475BD6
:104AF0005F4F12C0FA01608171816A0F7B1FAC0D9C
:104B0000BD1D14968C91DB0111968C93F901808167
:104B10009181019691838083F901A081B181A430B4
:104B2000B10540F311821082970126583D4FA5012F
:104B3000440F551FB701640F751F675B7F4F12C08D
:104B4000FB01008111810A0F1B1FAC0DBD1D1896C2
:104B50008C91D80119968C93F901808191810196ED
:104B600091838083F901A081B181A230B10540F326
:104B7000F701E40FF51FE75BFF4FA081B18182E0F1
:104B80009B968C9340815181D6011A968C91DA01C3
:104B90009C968C930190F081E02DD6011B968C9110
:104BA00085A7F90111821082970126583D4FA50172
:104BB000440F551F4E0D5F1D475B5F4F12C0FA013A
:104BC000608171816A0F7B1FAC0DBD1D1C968C919D
:104BD000DB019E968C93F9018081918101969183EE
:104BE0008083F901A081B181A230B10540F3118227
:104BF0001082970126583D4FA501440F551FD7013C
:104C0000A40FB51FA75BBF4F11C06D917C91119789
:104C1000680F791F8C0D9D1DFC018685FB0180AB03
:104C2000F90180819181019691838083F9018081CE
:104C300091818230910548F3F701E40FF51FE75B9E
:104C4000FF4F20813181D60150968C91D901D296A7
:104C50008C930190F081E02D82A9823011F481E0E3
:104C600083A7072D10E0A92CBB2481E090E068E623
:104C700070E00E94C850AC01F801EE0FFF1FEE0F6C
:104C8000FF1FE00FF11FEA0DFB1D3B96EE0FFF1F0C
:104C9000EE0DFF1D518340834115510521F4C701DD
:104CA0000E94601A26C422E432E0E20EF31ED7010D
:104CB0009C912EEB3DEFE20EF31E913009F0A2C164
:104CC000A0E8B2E0EA0EFB1ED7018C9120E83DEF90
:104CD000E20EF31E882309F0BCC04A595F4FD6018B
:104CE00015968C91DA018C93D60116968C910190D1
:104CF000F081E02D833221F4E959FF4F908303C006
:104D0000E959FF4F1082F801EE0FFF1FEE0FFF1F52
:104D1000E00FF11FEA0DFB1D3B96EE0FFF1FEE0D9E
:104D2000FF1D0190F081E02DE959FF4F6081862E33
:104D30009924D701A658BD4F11961C921E92F801D6
:104D4000EE0FFF1FEE0DFF1DE75BFF4F0190F0819F
:104D5000E02D81A5813071F0813018F0823039F476
:104D600003C082E090E01CC040E050E00BC080E057
:104D700090E016C088E090E013C02F5F3F4F11967F
:104D80003C932E932D913C911197F601E20FF31F66
:104D9000E80DF91D87814F5F5F4F833271F7CA01BC
:104DA000695F680F262F30E0F701EA5BFD4F8081D5
:104DB00091818217930710F431832083F801EE0F5D
:104DC000FF1FEE0FFF1FE00FF11FEA0DFB1D3B96CB
:104DD000EE0FFF1FEE0DFF1D608171816C597F4F3B
:104DE00046E452E0E40EF51ED7018D919C914AEB0A
:104DF0005DEFE40EF51E821B930BDB018D939C93FC
:104E0000D701A658BD4F11961C921E924D01AF01BD
:104E100010C06E0F7F1FEC0DFD1DE20FF31F808190
:104E2000FB018083D4018D919C91119701968D9304
:104E30009C93D401ED91FC91DA016D917C916C59B8
:104E40007F4FDB018D919C9164567040E817F90704
:104E500000F3E0E8F2E0EE0EFF1ED7019C91E0E8DF
:104E6000FDEFEE0EFF1E913009F0CCC0F801EE0F01
:104E7000FF1FEE0FFF1FE00FF11FEA0DFB1D3B961A
:104E8000EE0FFF1FEE0DFF1D208131812A593F4F8C
:104E9000D6011B968C91D9018C93D6011C968C91CE
:104EA0000190F081E02D833221F4E959FF4F908386
:104EB00003C0E959FF4F1082F801EE0FFF1FEE0FFC
:104EC000FF1FE00FF11FEA0DFB1D3B96EE0FFF1FCA
:104ED000EE0DFF1D0190F081E02DE959FF4F60813B
:104EE000862E9924D701A658BD4F11961C921E926A
:104EF000F801EE0FFF1FEE0DFF1DE75BFF4F019066
:104F0000F081E02D81A5813071F0813018F0823080
:104F100039F403C082E090E01CC040E050E00BC0D8
:104F200080E090E016C088E090E013C02F5F3F4F14
:104F300011963C932E932D913C911197F601E20F1F
:104F4000F31FE80DF91D85854F5F5F4F833271F7C1
:104F5000CA01635F680F262F30E0F701EA5BFD4F5F
:104F6000808191818217930710F431832083F801A7
:104F7000EE0FFF1FEE0FFF1FE00FF11FEA0DFB1DED
:104F80003B96EE0FFF1FEE0DFF1D608171816C5986
:104F90007F4F46E452E0E40EF51ED7018D919C91BF
:104FA0004AEB5DEFE40EF51E821B930BDB018D9344
:104FB0009C93D701A658BD4F11961C921E924D018D
:104FC000AF0110C06E0F7F1FEC0DFD1DE20FF31F30
:104FD0008081FB018083D4018D919C911197019672
:104FE0008D939C93D401ED91FC91DA016D917C91AC
:104FF0006C597F4FDB018D919C9164567040E8178E
:10500000F90700F3E2E4F2E0EE0EFF1ED7018C9107
:10501000EEEBFDEFEE0EFF1E8250843008F0ABC1C8
:1050200021E832E0E20EF31ED7018C91EFE7FDEFAD
:10503000EE0EFF1E882309F0CEC0F801EE0FFF1F11
:10504000EE0FFF1FE00FF11FEA0DFB1D3B96EE0F69
:10505000FF1FEE0DFF1D208131812A593F4FD601E0
:105060001C968C91D9018C93D6011D968C91019040
:10507000F081E02D833229F4E959FF4F81E08083EC
:1050800003C0E959FF4F1082F801EE0FFF1FEE0F2A
:10509000FF1FE00FF11FEA0DFB1D3B96EE0FFF1FF8
:1050A000EE0DFF1D0190F081E02DE959FF4F608169
:1050B000862E9924D701A658BD4F11961C921E9298
:1050C000F801EE0FFF1FEE0DFF1DE75BFF4F019094
:1050D000F081E02D81A5813071F0813018F08230AF
:1050E00039F403C082E090E01CC040E050E00BC007
:1050F00080E090E016C088E090E013C02F5F3F4F43
:1051000011963C932E932D913C911197F601E20F4D
:10511000F31FE80DF91D86854F5F5F4F833271F7EE
:10512000CA01625F680F262F30E0F701EA5BFD4F8E
:10513000808191818217930710F431832083F801D5
:10514000EE0FFF1FEE0FFF1FE00FF11FEA0DFB1D1B
:105150003B96EE0FFF1FEE0DFF1D608171816C59B4
:105160007F4F46E452E0E40EF51ED7018D919C91ED
:105170004AEB5DEFE40EF51E821B930BDB018D9372
:105180009C93D701A658BD4F11961C921E925D01AB
:10519000AF0110C06E0F7F1FEC0DFD1DE20FF31F5E
:1051A0008081FB018083D5018D919C91119701969F
:1051B0008D939C93D501ED91FC91DA016D917C91D9
:1051C0006C597F4FDB018D919C9164567040E817BC
:1051D000F90700F3D0C0823009F0CDC0F801EE0F1E
:1051E000FF1FEE0FFF1FE00FF11FEA0DFB1D3B96A7
:1051F000EE0FFF1FEE0DFF1D208131812A593F4F19
:10520000D60152968C91D9018C93D60153968C91EC
:105210000190F081E02D833229F4E959FF4F81E0BC
:10522000808303C0E959FF4F1082F801EE0FFF1F82
:10523000EE0FFF1FE00FF11FEA0DFB1D3B96EE0F77
:10524000FF1FEE0DFF1D0190F081E02DE959FF4F8A
:105250006081862E9924D701A658BD4F11961C92C5
:105260001E92F801EE0FFF1FEE0DFF1DE75BFF4FD3
:105270000190F081E02D81A5813071F0813018F02E
:10528000823039F403C082E090E01CC040E050E07E
:105290000BC080E090E016C088E090E013C02F5F64
:1052A0003F4F11963C932E932D913C911197F6010F
:1052B000E20FF31FE80DF91D87894F5F5F4F8332BF
:1052C00071F7CA016C5E680F262F30E0F701EA5BC8
:1052D000FD4F808191818217930710F431832083E1
:1052E000F801EE0FFF1FEE0FFF1FE00FF11FEA0D99
:1052F000FB1D3B96EE0FFF1FEE0DFF1D60817181C0
:105300006C597F4F46E452E0E40EF51ED7018D91B3
:105310009C914AEB5DEFE40EF51E821B930BDB01C3
:105320008D939C93D701A658BD4F11961C921E9247
:105330005D01AF0110C06E0F7F1FEC0DFD1DE20F70
:10534000F31F8081FB018083D5018D919C91119782
:1053500001968D939C93D501ED91FC91DA016D91AD
:105360007C916C597F4FDB018D919C91645670400C
:10537000E817F90700F3F701E85BFF4F80818F5FC3
:105380008083853009F41082000F111F0E0D1F1D40
:10539000075B1F4FD801ED91FC9193AD82AD98173B
:1053A00011F481E081AF99E4C92ED12CCE0CDF1C21
:1053B00066247724870106581D4F83E5282E312C5B
:1053C0002E0C3F1CF701E355FD4FFA83E98397014B
:1053D00021553D4F3C832B83A701415A5F4F5E838C
:1053E0004D83C7018E5B9D4F98878F83D701AF5741
:1053F000BD4FBA87A987F701E752FE4FFC87EB87BD
:10540000D8011D921C920E943708D601ED91FC91A3
:10541000309709F48FC325A936A947A950AD1216B4
:105420001306140615060CF085C3621B730B840B60
:10543000950B69557B41804090400CF037C381AD9E
:10544000813009F000C3B62CE981FA816082AB811A
:10545000BC811C92ED81FE8180818F5F8083D801A9
:105460001D921C920FC0F901BA96EE0FFF1FEE0DB0
:10547000FF1D80819181892B59F02F5F3F4FF801EB
:1054800031832083D8012D913C912530310558F38B
:10549000E22FAD81BE818C91853090F0AB85BC85CB
:1054A0008C91813029F0813038F0823049F41DC070
:1054B000C7010E94C71903C0C7010E945A19E82FEB
:1054C0004E2E552481E090E064EB70E00E94C850BD
:1054D000AC019201265D3F4F220F331F2E0D3F1D61
:1054E000F90191838083009731F4C7016B2D0E94ED
:1054F000FC188FEF2EC3D1018C9181508C934555B0
:105500005F4FD601ED91FC9185A896A8A7A8B0ACF5
:10551000DA018D929D92AD92BC9213974F525040FA
:105520008081FA018083D901ED91FC91E955FF4F0B
:10553000D6018D919C91DC019A968C918083F90122
:10554000A081B181F60180819181FC0183A518962B
:105550008C93AF81B8858C91813009F060C0F901DE
:10556000A081B181A955BF4F8C91A75AB04081301D
:1055700009F048C0D8011D921C92A90116C0FA0179
:10558000A081B181A80FB91FAF57BF4FF60120818D
:105590003181280F391FF90185818C93D8018D91B4
:1055A0009C91119701968D939C93F8018081918134
:1055B0008430910520F311821082A201465D5F4F75
:1055C000440F551F4E0D5F1D16C0FA01A081B18119
:1055D000A80FB91FA358BF4FF60120813181280FB2
:1055E000391FF90181818C93D8018D919C9111977C
:1055F00001968D939C93F80180819181843091056F
:1056000020F36EC0882309F06BC0AB57BF4FF60183
:1056100080819181FC0181858C93D90156C0F8016C
:1056200011821082A90116C0FA01A081B181A80FD0
:10563000B91FAF57BF4FF60120813181280F391FA5
:10564000F90185818C93D8018D919C9111970196D8
:105650008D939C93F801808191818430910520F392
:10566000118210829201265D3F4FB901660F771FAC
:105670006E0D7F1D13C0DB01ED91FC91E80FF91F4A
:10568000E358FF4F480F591FDA0111968C91808320
:10569000F80180819181019691838083D8018D9159
:1056A0009C91F601408151818430910520F3D9010C
:1056B000AA0FBB1FAE0DBF1D2D913C9111972B570B
:1056C0003F4FFA018185F9018083ED91FC91EA5702
:1056D000FF4FD6018D919C91DC011A968C918083AD
:1056E000F601808191813AE2A32EB12CA40CB51C65
:1056F000AA0CBB1CAE0CBF1CD501ED91FC91EA5568
:10570000FF4FDC01DA966C91DA97D3968D919C91DC
:10571000D49770E00E945E506083D501ED91FC91BA
:10572000E855FF4FD6018D919C91DC0199968C91A3
:105730008083F501A081B181A855BF4F8C91A85AF3
:10574000B0408130D9F0813020F0823009F08BC038
:105750005DC0A157BF4FF60180819181FC01838913
:105760008C93D501ED91FC91E057FF4FD6018D91BF
:105770009C91DC0154968C91808375C0F801118254
:105780001082A50116C0FA01A081B181A80FB91F2E
:10579000A557BF4FF60120813181280F391FF9012C
:1057A00083858C93D8018D919C91119701968D934F
:1057B0009C93F801808191818430910520F31182BE
:1057C0001082A201465D5F4F440F551F4E0D5F1DB5
:1057D00016C0FA01A081B181A80FB91FA957BF4F08
:1057E000F60120813181280F391FF90187858C93BB
:1057F000D8018D919C91119701968D939C93F801FE
:10580000808191818430910520F32DC0D8011D92B3
:105810001C92A501F80180819181FA01A081B181DA
:10582000A80FB91FAF56BF4FF60120813181280F55
:10583000391FF90185898C93D8018D919C9111971D
:1058400001968D939C93D601ED91FC91E80FF91F81
:1058500025892332F9F6D501ED91FC91E80FF91F66
:10586000EF56FF4F2083D601ED91FC9182AD682F5A
:1058700070E061507040F301EE0FFF1FEE0FFF1F4D
:10588000E60DF71DE60FF71F3B96EE0FFF1FEE0D1F
:10589000FF1DF88BEF8788249924AA24BB24A2013A
:1058A000465D5F4F440F551F4E0D5F1D32C0D8013E
:1058B0001D921C9216C0FA0120813181280F391FD8
:1058C0002A0D3B1DA80FB91F8C91D9011C968C93F2
:1058D0000894811C911CF80180819181019691832B
:1058E0008083D8018D919C91EF85F889A081B18149
:1058F000AC59BF4F2D913C911197A456B0408217DF
:105900009307C8F2A20EB31E615070403297F88B15
:10591000EF87FFEF6F3F7F0751F69201265D3F4F04
:10592000220F331F2E0D3F1DF901A081B181A05917
:10593000BF4F11969C928E92A057B040E985FA8590
:105940008081823009F044C0AC58BF4FF60180819D
:105950009181FC0184A58C93D901ED91FC91EB58C8
:10596000FF4FD6018D919C91DC019D968C91808397
:10597000D901ED91FC91EA58FF4FD6018D919C9190
:10598000DC019E968C918083D901ED91FC91E958C0
:10599000FF4FD6018D919C91DC019F968C91808365
:1059A000D901ED91FC91E858FF4FD6018D919C9162
:1059B000DC01D0968C918083D901ED91FC91E75860
:1059C000FF4FD6018D919C91DC01D1968C91808303
:1059D000F801118210825301AA0CBB1CAA0CBB1C3B
:1059E000A60CB71C1CC0EA0DFB1D3B96EE0FFF1F5B
:1059F000EE0DFF1D808191810E949151D8018D9102
:105A00009C911197F501E80FF91F3B96EE0FFF1FD0
:105A1000EE0DFF1D1182108201968D939C93D8018B
:105A2000ED91FC91E530F105F0F2D601ED91FC919C
:105A300015AA16AA17AA10AECF010E949151F6011D
:105A40001182108277C092AD83AD981709F072C0B1
:105A5000D8011D921C925301AA0CBB1CAA0CBB1CA2
:105A6000A60CB71C1CC0EA0DFB1D3B96EE0FFF1FDA
:105A7000EE0DFF1D808191810E949151F80180817E
:105A80009181F501E80FF91F3B96EE0FFF1FEE0D18
:105A9000FF1D118210820196D8018D939C93D8012D
:105AA000ED91FC91E530F105F0F22DC0F801118285
:105AB00010825301AA0CBB1CAA0CBB1CA60CB71C61
:105AC0001CC0EA0DFB1D3B96EE0FFF1FEE0DFF1DE8
:105AD000808191810E949151D8018D919C91119763
