:100000000C94D3000C949F640C94D0640C94016500
:100010000C9432650C9463650C9494650C94C565DE
:100020000C94F6650C94FD000C94FD000C94FD00FE
:100030000C94B1050C94FD000C94FD000C949704F5
:100040000C94FD000C94FD000C94FD000C94FD003C
:100050000C94FD000C94FD000C94FD000C947204B3
:100060000C94FD000C94496A0C94FD000C94FD0066
:100070000C94FD000C94FD000C94FD000C94FD000C
:100080000C94FD000C94FD000C94FD000C94FD00FC
:100090000C948A6A0C94FD000C94FD000C94A862E8
:1000A0000C94FD000C94FD000C94FD000C94FD00DC
:1000B0000C94FD000C94FD000C94FD000C94FD00CC
:1000C0000C94FD000C94FD000C94FD0000212427ED
:1000D0002A2D3033002225282B2E313400202326D0
:1000E000292C2F3205050505030303030101010433
:1000F00004030606060606060606010405010501B8
:1001000003020202020202010202050504040304C2
:1001100004010304070707010208101020408004AF
:1001200008102040020204081020408001028020B4
:100130004004200101020408102001408040800199
:1001400002080408800410040201000008090000ED
:10015000000000000000000000000000000000009F
:10016000000000000000000000000000000000008F
:10017000000000000000000000000000007C3C3E89
:100180005E2B3D3F2F5B5D3B2C2A225C0000CD06A1
:10019000E80E2A0FA610A6619C6F47771B7C597C3E
:1001A000617C627C6D7C11241FBECFEFD1E2DEBF8B
:1001B000CDBF1AE0A0E0B2E0EEE2F8E001E00BBF54
:1001C00002C007900D92A833B107D9F719E1A8E34F
:1001D000BAE001C01D92A636B107E1F711E0C6EA08
:1001E000D1E004C02297FE010E94367FCE38D107AD
:1001F000C9F70E946B040C9415840C940000EF92D4
:100200000F9381E090E064EB70E00E943A7FFC0184
:100210009093510A8093500AE658FF4F1082EA5794
:10022000F0401086E458FF4F87E080831292EB572E
:10023000F0401092E80D85E79CE0BF0140E052E0FD
:1002400020E00E94DF4C6091500A7091510A85E7CE
:100250009CE045E052E022E53AE000E0EE240E9416
:100260000B4E6091500A7091510A85E79CE00E9404
:1002700055448091510E882329F481E79CE06AE07F
:1002800072E004C081E79CE068E172E00E943C10EB
:100290008091500A9091510A0E9403801092510A55
:1002A0001092500A0F91EF9008958F929F92AF9203
:1002B000BF92CF92DF92EF92FF920F931F93209104
:1002C000E10A3091E20A4091E30A5091E40A8091F8
:1002D000DD0A9091DE0AA091DF0AB091E00A281BA6
:1002E000390B4A0B5B0B2093E50A3093E60A4093E7
:1002F000E70A5093E80A8DB79EB708970FB6F894AF
:100300009EBF0FBE8DBFEDB7FEB7319662ECC62E15
:100310006AE0D62EADB7BEB71296DC92CE92119798
:100320008FE292E0938382832483358346835783CD
:100330000E9428818DB79EB708960FB6F8949EBF8D
:100340000FBE8DBF4091D50A5091D60A6091D70A51
:100350007091D80A28ECA22E2AE0B22E81E39BE00D
:10036000950102E010E00E94FE0DADB7BEB71C97EC
:100370000FB6F894BEBF0FBEADBFEDB7FEB7319656
:1003800092E5892E9AE0992E12969C928E92119760
:1003900080E390E09383828385E392E09583848376
:1003A000B782A682D186C08682E8E82E8AE0F82E3F
:1003B000F386E2860E94EA808DB79EB70C960FB650
:1003C000F8949EBF0FBE8DBF01E71CE0C8016CE32F
:1003D00072E00E943C10C80163E572E00E94A40F25
:1003E000C801B7010E943C10C8016BE572E00E9491
:1003F000A40FC80162EA7AE00E943C10C80162E6DC
:1004000072E00E94A40F4091DD0A5091DE0A6091D3
:10041000DF0A7091E00AC8010E944C0FC80165E72D
:1004200072E00E94A40F4091E10A5091E20A6091AB
:10043000E30A7091E40AC8010E944C0FC80167E802
:1004400072E00E94A40FC801B6010E943C10C801CE
:1004500062E972E00E94A40F4091D10A5091D20A41
:100460006091D30A7091D40AC8010E943110C8016A
:1004700064EA72E00E94A40F4091D90A5091DA0A0E
:100480006091DB0A7091DC0AC8010E944C0FC80120
:1004900064EB72E00E94A40FC801B5010E943C10F9
:1004A000C8016AEC72E00E943C10C801B4010E94CD
:1004B0003C10C8016CED72E00E943C101F910F913E
:1004C000FF90EF90DF90CF90BF90AF909F908F9074
:1004D00008959F92AF92BF92CF92DF92EF92FF92D8
:1004E0000F931F9381E79CE00E945410882309F426
:1004F00006C185E79CE00E9417608091500E88231A
:1005000009F4E5C0F6C0F0E0EE0FFF1FE953F34F2A
:100510000190F081E02D8485813329F081E79CE012
:100520006FEF72E0B9C08091320A882321F08130E8
:1005300009F0B4C061C09092320A8AEE9AE00E943B
:10054000460CBC0182EA9AE00E94E3806091030BB2
:1005500070E080E090E020E831E541E050E00E946A
:10056000A57E7B018C016091000B70E080E090E043
:1005700020E13EE040E050E00E94A57EE60EF71E3E
:10058000081F191F8091020BE80EF11C011D111D9F
:100590006091010B70E080E090E02CE330E040E0FF
:1005A00050E00E94A57EE60EF71E081F191FE0927C
:1005B000E10AF092E20A0093E30A1093E40A0E942F
:1005C00055010E94FF001092D90A1092DA0A109287
:1005D000DB0A1092DC0AA092D10AB092D20AC09231
:1005E000D30AD092D40AA092D50AB092D60AC09269
:1005F000D70AD092D80A52C01092320A8AEE9AE0F4
:100600000E94460CBC0182E89AE00E94E38060915F
:10061000030B70E080E090E020E831E541E050E03D
:100620000E94A57E7B018C016091000B70E080E050
:1006300090E020E13EE040E050E00E94A57EE60E22
:10064000F71E081F191F8091020BE80EF11C011DF7
:10065000111D6091010B70E080E090E02CE330E030
:1006600040E050E00E94A57EE60EF71E081F191F0D
:10067000E092DD0AF092DE0A0093DF0A1093E00AAE
:100680008AEE9AE06BE173E040E021E00E94AF0B5C
:1006900081E79CE067E273E00E943C10E091D40C9B
:1006A000F0E0EE0FFF1FE953F34F808191810E942C
:1006B00003808091D40CE82FF0E0EE0FFF1FE95388
:1006C000F34F1182108281508093D40C0CC0992476
:1006D00093940F2EF0E0AF2EF0E0BF2EF0E0CF2E7F
:1006E000F0E0DF2EF02DE091D40CEE2309F00BCFDB
:1006F00006C081E79CE06EE373E00E943C108091AD
:10070000320A882309F0A0C08091380A9091390AF2
:10071000A0913A0AB0913B0A84FF96C08AEE9AE013
:100720000E9439096093CD0A7093CE0A8093CF0A54
:100730009093D00AE090D90AF090DA0A0091DB0A8F
:100740001091DC0A0894E11CF11C011D111DE092BE
:10075000D90AF092DA0A0093DB0A1093DC0A20919E
:10076000D10A3091D20A4091D30A5091D40A0E9402
:100770008F7C5B016C016093D10A7093D20A8093E5
:10078000D30A9093D40AC801B7010E94907D9B01BF
:10079000AC01C601B5010E94F77C6093D50A709345
:1007A000D60A8093D70A9093D80A8091380A9091FC
:1007B000390AA0913A0AB0913B0A8F7E8093380A99
:1007C0009093390AA0933A0AB0933B0A8AEE9AE0D2
:1007D0006BE173E040E021E00E94AF0B81E79CE019
:1007E00065E573E00E94A40F4091D90A5091DA0A9E
:1007F0006091DB0A7091DC0A81E79CE00E944C0F5B
:1008000081E79CE062E972E00E94A40F4091D10A66
:100810005091D20A6091D30A7091D40A81E79CE08A
:100820000E94311081E79CE064EB72E00E94A40F0B
:100830004091D50A5091D60A6091D70A7091D80A92
:1008400081E79CE00E9431101F910F91FF90EF9083
:10085000DF90CF90BF90AF909F9008950F931F931C
:1008600005E71CE0C80161E041E021E00E94611160
:10087000C8010E944961C80160912F0A4091300A65
:100880000E94AE39C80161E673E00E942F36C801AC
:100890006091310A0E94D146C8016DE27AE00E945F
:1008A000AE38C80160E00E94AD46C8010E94323AED
:1008B0000AEE1AE0C8010E94960CC80168E673E0CF
:1008C0000E941F0A81E79CE06CED72E00E943C10E0
:1008D0001F910F9108950E941C050E942E040E94F2
:1008E0006902FDCF1F920F920FB60F9211248F93C2
:1008F0009F93AF93BF9380915A1590915B15A091F0
:100900005C15B0915D150196A11DB11D80935A151E
:1009100090935B15A0935C15B0935D15BF91AF915B
:100920009F918F910F900FBE0F901F9018951F925F
:100930000F920FB60F9211248F939F93AF93BF9393
:1009400080915E1590915F15A0916015B091611531
:100950000196A11DB11D80935E1590935F15A09324
:100960006015B0936115BF91AF919F918F910F90DA
:100970000FBE0F901F90189560915A1570915B15DE
:1009800080915C1590915D1527E0660F771F881F99
:10099000991F2A95D1F72EE330E040E050E00E9405
:1009A000F77ECA01B9010895AF92BF92CF92DF924C
:1009B000EF92FF920F931F935B016C0160915A15A8
:1009C00070915B1580915C1590915D1547E0660F05
:1009D000771F881F991F4A95D1F72EE330E040E03A
:1009E00050E00E94F77E79018A0160915A1570915A
:1009F0005B1580915C1590915D1537E0660F771F50
:100A0000881F991F3A95D1F72EE330E040E050E07F
:100A10000E94F77E2E193F09400B510B2A153B050A
:100A20004C055D0510F31F910F91FF90EF90DF9043
:100A3000CF90BF90AF900895789484B7877F84BF9C
:100A400010925A1510925B1510925C1510925D155C
:100A500084B5826084BD84B5816084BD85B58260C3
:100A600085BD85B5816085BDEEE6F0E08081816061
:100A70008083E1E8F0E08081826080838081816012
:100A80008083E0E8F0E0808181608083E1EBF0E04A
:100A9000808184608083E1E9F0E0808184608083EC
:100AA000E0EBF0E0808181608083E0E9F0E080812C
:100AB00081608083E4E6F0E080818E7F8083ECE7D4
:100AC000F0E080818F778083808180648083EAE793
:100AD000F0E0808184608083808182608083808177
:100AE000806880831092C1001092C900089590918F
:100AF000E90A982B9093E90A80FF32C08091640044
:100B00008E7F8093640080917C008F7780937C003F
:100B100080917C00806480937C0080917A00846066
:100B200080937A0080917A00826080937A0080912D
:100B30007A00806880937A00809164008F77809338
:100B40006400809164008B7F8093640080916400D6
:100B50008D7F80936400809165008E7F8093650017
:100B600008951F920F920FB60F920BB60F92112499
:100B70002F933F934F935F936F937F938F939F93A5
:100B8000AF93BF93EF93FF93F89481E08093330A80
:100B9000E0E6F0E080818068808380818F7B8083C5
:100BA00083E060E00E9406067894FF91EF91BF9188
:100BB000AF919F918F917F916F915F914F913F91F5
:100BC0002F910F900BBE0F900FBE0F901F90189596
:100BD000282F30E0C901895E9E4FFC0194912C5171
:100BE0003F4FF9018491882381F0E82FF0E0E4532E
:100BF000FF4FE491F0E0662329F4808190958923EA
:100C0000808308958081892B80830895482F50E048
:100C1000CA01865B9E4FFC012491CA01895E9E4FEA
:100C2000FC0194914C515F4FFA0134913323C1F18F
:100C3000222331F1233021F4809180008F7705C089
:100C4000243031F4809180008F7D8093800018C023
:100C5000213019F484B58F7704C0223021F484B593
:100C60008F7D84BD0DC0263021F48091B0008F7738
:100C700005C0273029F48091B0008F7D8093B000AB
:100C8000E32FF0E0EC52FF4FE491F0E0662329F40B
:100C9000808190958923808308958081892B80832A
:100CA0000895482F50E0CA01865B9E4FFC012491B5
:100CB000CA01895E9E4FFC0194914C515F4FFA012D
:100CC0003491332319F420E030E035C0222331F190
:100CD000233021F4809180008F7705C0243031F4D7
:100CE000809180008F7D8093800018C0213019F49E
:100CF00084B58F7704C0223021F484B58F7D84BD04
:100D00000DC0263021F48091B0008F7705C02730C8
:100D100029F48091B0008F7D8093B000E32FF0E044
:100D2000E452FF4FE491F0E0808120E030E089233D
:100D300011F021E030E0C9010895FC01138A148A02
:100D4000158A168A178A108E118E128E138E148EA3
:100D5000158E168E178E10A211A212A280E090E0BE
:100D6000A0E0B0E083A394A3A5A3B6A30895262F83
:100D7000862F6AE00E94C47E492F30E0C901841B9F
:100D800091096AE070E00E94E47EE4E0660F771F5C
:100D9000EA95E1F7842F862B08950895CF93DF938A
:100DA000EC018D89843009F45FC0853048F48230CD
:100DB00059F1833008F040C0813009F0D2C00AC038
:100DC000863009F481C0863008F466C0873009F0A7
:100DD000C8C092C08DB79EB742970FB6F8949EBF19
:100DE0000FBE8DBFEDB7FEB73196A896ADB7BEB7B3
:100DF0001296DC93CE931197A8978DE793E0938397
:100E0000828381EA93E08FC0ADB7BEB752970FB629
:100E1000F894BEBF0FBEADBFEDB7FEB73196A89632
:100E20001296DC93CE931197A8978DE793E0938366
:100E3000828388EA93E077C0ADB7BEB752970FB60A
:100E4000F894BEBF0FBEADBFEDB7FEB73196A89602
:100E50001296DC93CE931197A8978DE793E0938336
:100E600082838FEA93E05FC0ADB7BEB752970FB6EB
:100E7000F894BEBF0FBEADBFEDB7FEB73196A896D2
:100E80001296DC93CE931197A8978DE793E0938306
:100E9000828387EB93E047C0ADB7BEB752970FB6DA
:100EA000F894BEBF0FBEADBFEDB7FEB73196A896A2
:100EB0001296DC93CE931197A8978DE793E09383D6
:100EC000828381EC93E02FC0ADB7BEB752970FB6C7
:100ED000F894BEBF0FBEADBFEDB7FEB73196A89672
:100EE0001296DC93CE931197A8978DE793E09383A6
:100EF00082838AEC93E017C0ADB7BEB752970FB6A6
:100F0000F894BEBF0FBEADBFEDB7FEB73196A89641
:100F10001296DC93CE931197A8978DE793E0938375
:100F2000828381ED93E0958384838B898683178206
:100F30008C8980871186898D828713868E89848724
:100F400015868F8986871786888D808B118A0E94E7
:100F500028818DB79EB742960FB6F8949EBF0FBEFC
:100F60008DBF9E01285D3F4FC901DF91CF9108954C
:100F7000DF92EF92FF920F931F938C01D62EA2E87F
:100F8000EA2EAFE0FA2EC70168E670E00E948561A4
:100F9000C7016D2D0E94A7610D0D111DC701F8013C
:100FA00060810E94A761C7010E94CE611F910F91CD
:100FB000FF90EF90DF9008958091F90A8C7F8093E5
:100FC000F90A8AEE9AE06FE00E94B80708950F933D
:100FD0001F938C0160E170E080E090E00E94276642
:100FE000C8010E94DC071F910F9108951F93CF93B2
:100FF000DF93EC01142F613009F08CC08E858D7F5A
:1010000085608E87CE016EE00E94B8078F858C7F49
:101010008F87CE016FE00E94B807133009F452C0E9
:10102000143030F4113031F18F811230D8F50AC00C
:10103000153009F454C0153008F44EC0163009F0CC
:10104000DDC0D2C08F778F83CE0167E00E94B807E2
:1010500088858F778887CE0168E00E94B8078985E8
:101060008F778987CE0169E00E94B8078A858F77DC
:1010700080644CC08F818F778F83CE0167E00E94A0
:10108000B80788858F778887CE0168E00E94B80707
:1010900089858F778987CE0169E00E94B8078A85A4
:1010A0008F7334C08F778F83CE0167E00E94B807BB
:1010B00088858F778887CE0168E00E94B807898588
:1010C0008F771DC08F818F778F83CE0167E00E945D
:1010D000B80788858F770CC08F818F7702C08F818A
:1010E00080688F83CE0167E00E94B807888580689A
:1010F0008887CE0168E00E94B80789858068898763
:10110000CE0169E00E94B8078A8580688A87CE018F
:101110006AE067C0623009F071C08E858E7F86609C
:101120008E87CE016EE00E94B8078F858C7F8F87F7
:10113000CE016FE00E94B807123099F1133030F4FD
:10114000112361F0113009F059C01AC01430B1F107
:10115000143088F1153009F051C046C08B858F7767
:101160008B87CE016BE00E94B8078C858F778C87C8
:10117000CE016CE00E94B8078D858F7780642EC009
:101180008B858F778B87CE016BE00E94B8078C85AB
:101190008F778C87CE016CE00E94B8078D858F73A6
:1011A0001DC08B858F778B87CE016BE00E94B807BF
:1011B0008C858F770CC08B858F7702C08B8580687C
:1011C0008B87CE016BE00E94B8078C8580688C8786
:1011D000CE016CE00E94B8078D8580688D87CE01B6
:1011E0006DE00E94B8070AC08E85887F8E87CE0189
:1011F0006EE00E94B807CE010E94E70760E170E050
:1012000080E090E00E948666DF91CF911F91089563
:101210001F93CF93DF93EC01162F82E89FE068E6DF
:1012200070E00E94856182E89FE0612F0E94A761C3
:1012300082E89FE00E94CE6182E89FE068E670E06D
:1012400041E050E00E94EF6182E89FE00E948F61E0
:101250008823D1F382E89FE00E949561C10FD11DE0
:10126000888382E89FE00E94CE61DF91CF911F9139
:101270000895CF93DF93EC0161E10E940809CE014C
:1012800062E10E9408092989422F552747FD5095A0
:10129000440F551F440F551F8A8990E036E09695FC
:1012A00087953A95E1F7480F591F30E0220F232F19
:1012B000221F330B2130310561F466277727641B29
:1012C000750B882777FD8095982F0E94927D905806
:1012D00007C0BA01882777FD8095982F0E94927DDC
:1012E0006BA37CA38DA39EA320E030E040E85EE3E7
:1012F0000E94427E6BA37CA38DA39EA32BA13CA145
:101300004DA15EA1B901CA01DF91CF910895DF928D
:10131000EF92FF920F931F938C01A2E8EA2EAFE0A9
:10132000FA2EC70168E670E00E948561C70167E098
:1013300070E00E94CB61C801F801628D0E94B7067F
:10134000FFE7DF2ED822F801D782C801638D0E9403
:10135000B7068F77F8018087C801648D0E94B706B1
:101360008F77F8018187C801658D0E94B7068F735A
:10137000F8018287C7016D2D0E94A761C701F8019E
:1013800060850E94A761C701F80161850E94A7617D
:10139000C701F80162850E94A761C7010E94CE6162
:1013A0001F910F91FF90EF90DF9008950F931F937F
:1013B000CF93DF93EC0182E89FE068E670E00E9443
:1013C000856182E89FE060E070E00E94CB61CE0121
:1013D000688D0E94B7068883CE016F890E94B70688
:1013E0008983CE016E890E94B7068A838D898B839B
:1013F000CE01698D0E94B7068C83CE016C890E9454
:10140000B7068D83CE016B890E94B7068E8300E0FC
:1014100010E0FE01E00FF11F82E89FE060810E9472
:10142000A7610F5F1F4F0730110599F782E89FE012
:101430000E94CE61DF91CF911F910F910895DC0141
:10144000FB0121812053808180533AE0839FC001BA
:101450001124280F53962C93539724812053838172
:101460008053839FC0011124280F54962C935497C6
:101470002781205386818053839FC0011124280F28
:1014800059962C9359972285205381858053839FA9
:10149000C0011124280F55962C935597258520536C
:1014A00084858053839FC0011124280F56962C9366
:1014B00056972089205387858053839FC00111242C
:1014C000280F57962C93579723892053828980534E
:1014D000839FC0011124280F58962C935897CD0153
:1014E0000E94D6090895CF92DF92EF92FF921F9348
:1014F000CF93DF937C01162F82E89FE068E670E0CF
:101500000E94856182E89FE060E070E00E94CB610C
:1015100082E89FE00E94CE6182E89FE068E670E08A
:1015200042E150E00E94EF61C0E0D0E0C12EDD2436
:101530001AE009C182E89FE00E948F61882309F4C4
:1015400002C182E89FE00E949561282FF701EC0F0D
:10155000FD1F8083C630D10509F482C0C730D10594
:10156000B8F4C230D10509F44EC0C330D10538F407
:10157000209769F1C130D10509F0E4C036C0C4300C
:10158000D10509F451C0C530D10508F05BC049C090
:10159000CA30D10509F49BC0CB30D10558F4C8300E
:1015A000D10509F478C090E02F70C930D10508F05A
:1015B00081C064C0CC30D10509F4A7C0CC30D105BE
:1015C00008F494C0CD30D10509F0BCC0ADC090E0A6
:1015D00054E0959587955A95E1F7819FC0011124B4
:1015E0002F70280FF701208FADC090E044E0959553
:1015F00087954A95E1F7819FC00111242F70280F2C
:10160000F701278B9FC090E034E0959587953A9538
:10161000E1F7819FC00111242F70280FF701268B5D
:1016200091C0F701858B8EC090E0B4E095958795C9
:10163000BA95E1F7819FC00111242F70280FF7019F
:10164000218F80C090E0A4E095958795AA95E1F759
:10165000819FC00111242F70280FF701248B72C0C5
:1016600090E0F4E095958795FA95E1F7819FC001A8
:1016700011242F70280FF701238B64C0E4E09595A7
:101680008795EA95E1F78770819FC0011124280FA3
:10169000F701228F57C090E074E0959587957A9571
:1016A000E1F78770819FC00111242F70280FF70187
:1016B000238F48C064E0959587956A95E1F783701C
:1016C000819FC0011124280FF701248F3BC090E0B7
:1016D00054E0959587955A95E1F78370819FC001F5
:1016E00011242F70280FF701258F2CC090E044E0C3
:1016F000959587954A95E1F78770819FC0011124E0
:101700002F70280FF701268F1DC090E034E09595CB
:1017100087953A95E1F78370819FC00111242F705E
:10172000280FF701278F0EC090E0B4E095958795BC
:10173000BA95E1F78370819FC00111242F70280FA3
:10174000F70120A32196CC16DD0608F0F3CEDF9139
:10175000CF911F91FF90EF90DF90CF9008951F934E
:10176000CF93DF93EC01FB01122F21812053808165
:1017700080533AE0839FC0011124280F2D8F2481CC
:10178000205383818053839FC0011124280F2C8F05
:101790002781205386818053839FC0011124280F05
:1017A0002B8F2285205381858053839FC001112474
:1017B000280F2A8F442309F05BC0CE0166E00E9407
:1017C000730A988D8A8D980F9A8F9C3328F09C53BA
:1017D0009A8F8B8D8F5F8B8F9F898B8D980F9B8FAF
:1017E0009C3328F09C539B8F8C8D8F5F8C8F9E89B0
:1017F0008C8D980F9C8F983128F098519C8F8D8DEF
:101800008F5F8D8F2D8D112339F48D89820F8D8FF0
:10181000883070F187502BC0998D920F9D8F8C89E5
:10182000813051F0833041F0853031F0873021F044
:10183000883011F08C3021F4903210F09F519D8F40
:101840008C89843041F0863031F0893021F08A3043
:1018500011F08B3029F48D8D8F3110F08E518D8FDA
:101860008C89823029F48D8D8D3110F08C518D8FC3
:101870008AEE9AE00E9487098AEE9AE061E0412FA1
:101880000E94F607DF91CF911F9108950F931F9348
:101890008C0166E00E94730AC8010E94CE061F9167
:1018A0000F9108950F931F93CF93DF93EC01042FB3
:1018B0006FA380E361E00E94E8051FA1113019F0D9
:1018C000103199F40DC080E361E00E9406060130FA
:1018D00019F482E08A8B09C0002339F41A8B05C001
:1018E00080E360E00E9406061A8ADF91CF911F9183
:1018F0000F910895CF93DF93EC0161E040E00E94E7
:10190000520C8091820F882321F482E89FE00E948C
:10191000F261CE010E94DC07CE010E949D06CE013D
:101920006DE00E94730ADF91CF9108950E947A0CB6
:101930000895FB0120E030E002C02F5F3F4F81910E
:101940008823D9F7C90108950F931F93CF93DF938D
:101950008B01BA01DA0140E050E0C22FD0E019C09B
:10196000F801E40FF51F8081982F92959F708F707A
:101970009A3010F4905D01C0995C9C938A3010F409
:10198000805D01C0895C11968C9311974F5F5F4F0A
:1019900012964C175D0724F3CC0FDD1FC60FD71F1F
:1019A0001882DF91CF911F910F91089528E00E9436
:1019B000A40C08958F929F92AF92BF92CF92DF9224
:1019C000EF92FF920F931F93CF93DF93992401C05F
:1019D0009394FB01E90DF11D808180538A30C0F39F
:1019E0005B01EE24FF24870120C02AE030E040E0C4
:1019F00050E00E94A57E0894C11CD11CCC16DD06C7
:101A0000A4F3282D332727FD309520533040442759
:101A100037FD4095542F0E94A57EE60EF71E081F45
:101A2000191F9A940894A11CB11CF5018080882D7F
:101A300080538A3050F461E070E080E090E0CC2484
:101A4000DD24C92DD0E02197D9CFB701C801DF919E
:101A5000CF911F910F91FF90EF90DF90CF90BF90AB
:101A6000AF909F908F900895FB019081892F8053B4
:101A70008A3038F4292F332727FD30952053304002
:101A80000DC0892F8154863018F020E030E007C067
:101A9000292F332727FD3095275330403196608119
:101AA000862F80538A3030F4772767FD7095605316
:101AB00070400CC0862F8154863018F060E070E0D2
:101AC00005C0772767FD709567537040A4E0220F2B
:101AD000331FAA95E1F7862F820F08956833A1F18D
:101AE000693380F4643341F1653338F4623301F1D2
:101AF000633300F56133D1F417C0663309F16733FE
:101B000008F51CC0633441F1643438F4613401F1E8
:101B1000623400F5693351F419C0653409F1653454
:101B2000E8F0663419F41EC081E01DC080E01BC0DF
:101B300082E019C083E017C084E015C085E013C0BF
:101B400086E011C087E00FC088E00DC089E00BC0BF
:101B50008AE009C08BE007C08CE005C08DE003C0BF
:101B60008EE001C08FE04733A1F1483380F4433366
:101B700041F1443338F44133F1F0423300F540335E
:101B8000E1F51BC0453309F1463308F51CC042346A
:101B900041F1433438F4493301F14933E0F0413441
:101BA00061F51DC0443409F14434E8F04534F9F0DE
:101BB0004634F9F0089591E01DC090E01BC092E01A
:101BC00019C093E017C094E015C095E013C096E0EB
:101BD00011C097E00FC098E00DC099E00BC09AE0EB
:101BE00009C09BE007C09CE005C09DE003C09EE0EB
:101BF00001C09FE08295807F890F08952F923F92C8
:101C00004F925F926F927F928F929F92AF92BF920C
:101C1000CF92DF92EF92FF920F931F93DF93CF93B8
:101C2000CDB7DEB769970FB6F894DEBF0FBECDBF54
:101C30003A014B011901198F088FCB01BA0120E03D
:101C400030E040E050E00E94F37C87FD02C01F8A34
:101C500006C097FA909497F8909421E02F8BC401D6
:101C6000B3010E945F7D5B016C01CE0101969E8BEA
:101C70008D8B44245524C601B5012AE030E040E0B4
:101C800050E00E94197F7B018C01C601B5012AE05A
:101C900030E040E050E00E94197FC901DA015C01A8
:101CA0006D01ED89FE89E192F192FE8BED8BC2010F
:101CB0000894411C511CA114B104C104D104D9F6EB
:101CC0009C01FF89FF2319F440E050E005C08DE23C
:101CD000F101808341E050E0C901880F991FFE01A6
:101CE0003196E80FF91FD101A40FB51FBE01615055
:101CF00070408081805D8D933297E617F707C9F7B2
:101D000029010894411C511C440E551E8101040DEB
:101D1000151D8EE2F8018083C401B3010E945F7D2E
:101D2000882777FD8095982F0E94927D9B01AC01BA
:101D3000C401B3010E948E7C380111E0812E912CE8
:101D400020C020E030E040E251E40E94427E5B018E
:101D50006C010E945F7D7B018C01B701882777FDB4
:101D60008095982F0E94927D9B01AC01C601B50120
:101D70000E948E7CF0E3EF0EF301E0820894811C58
:101D8000911CF401E40DF51D0894611C711C288D53
:101D9000398D28153905ACF6E20DF31D10826996D0
:101DA0000FB6F894DEBF0FBECDBFCF91DF911F916C
:101DB0000F91FF90EF90DF90CF90BF90AF909F90EA
:101DC0008F907F906F905F904F903F902F900895ED
:101DD0000895CB01642F0E9467830895CB010E9470
:101DE0005F8308958FE261E00E94E80584E261E08C
:101DF0000E94E80585E261E00E94E8058FE261E06B
:101E00000E94060684E261E00E94060685E261E027
:101E10000E94060608950F931F93162F042F8FE23A
:101E200061E00E94E80584E261E00E94E80585E245
:101E300061E00E94E8058FE261E00E94060684E20C
:101E4000612F0E94060685E2602F0E9406061F9100
:101E50000F9108951092710C1092730C08950F93C6
:101E6000FC01CB01BA012AE030E040E050E0008103
:101E70000E94F26A0F9108950F931F938C018DE0D9
:101E8000F80160810E94CB6A8AE0F80160810E94BB
:101E9000CB6A1F910F9108950F931F938C010E949D
:101EA0002F0FC8010E943C0F1F910F910895EF92D0
:101EB000FF920F931F93CF93DF93EC017A018B0175
:101EC00077FF0CC08DE268810E94CB6A1095009567
:101ED000F094E094E11CF11C011D111DC801B70133
:101EE0002AE030E040E050E008810E94F26ADF9191
:101EF000CF911F910F91FF90EF9008950F931F9333
:101F0000FC01DA018B012115310529F4842F608150
:101F10000E94CB6A16C02A30310519F40E94570F6F
:101F200010C02031310529F4842F60810E94946B08
:101F300008C030E040E050E0BD01C80100810E94CF
:101F4000F26A1F910F910895FC01CB0160810E94FC
:101F5000DC6A08959F92AF92BF92CF92DF92EF9288
:101F6000FF920F931F93CF93DF93EC017A018B01C4
:101F7000922ECB01BA0120E030E040E050E00E9418
:101F8000F37C882344F48DE268810E94CB6A17FBBE
:101F9000109517F9109520E030E040E05FE3AA24A7
:101FA0000BC0CA01B90120E030E040E251E40E94D8
:101FB000F77C9B01AC01A394A91498F3C801B70165
:101FC0000E948F7C5B016C010E94647D7B018C010F
:101FD000CE01B801A7010E942F0F992029F084E2B9
:101FE00094E068810E94DC6AC801B7010E94907D7C
:101FF0009B01AC01C601B5010E948E7C20C020E08F
:1020000030E040E251E40E94427E7B018C010E945C
:102010005F7D5B016C01CC24B7FCC094DC2CCE014D
:10202000B601A5010E94570FC601B5010E94927D1D
:102030009B01AC01C801B7010E948E7C9A94992043
:10204000F1F6DF91CF911F910F91FF90EF90DF900C
:10205000CF90BF90AF909F9008952AE00E94AA0F62
:1020600008950F931F938C010E942D10C8010E94A8
:102070003C0F1F910F9108950F931F938C01CB017B
:10208000F80160810E94DC6AC8010E943C0F1F9128
:102090000F910895FC0180810E94356A0895FC012A
:1020A00080810E94FA690895FC0180810E94D669AE
:1020B0000895FC016183613019F06330B9F518C0EF
:1020C0008081882311F486E111C081E39BE00E94A6
:1020D000F20E86E061E00E94E80586E061E00E9481
:1020E00006068AE261E00E94E8058AE261E005C036
:1020F0008081882329F486E160E00E940606089525
:1021000081E39BE060E040E00E940B0F86E061E02D
:102110000E94E80586E060E00E9406068AE261E02F
:102120000E94E8058AE260E00E9406060895FC012C
:10213000262F608360E070E0CB01BA01422F0E943D
:10214000CE6B86E161E00E94E805089510922B0FA6
:1021500010922C0F10922F0F1092310F0895EF92C2
:10216000FF920F937C0182E492E0E80EF91EF701E2
:102170006193419321937F01008323E03EEFE20EC0
:10218000F31EF70110822BE030E0E20EF31EF701A0
:1021900010822CE030E0E20EF31EF701108222EEF6
:1021A00030E0E20EF31EF701108223EE3FEFE20E65
:1021B000F31E83E1F70181937F0188E8808322E0A9
:1021C00030E0E20EF31EF70111927F01108227E149
:1021D00030E0E20EF31E89E1F701808323E030E076
:1021E000E20EF31E8FE1F70181937F018EEF808372
:1021F00026E230E0E20EF31EF701119284E08193B3
:102200007F0188E2808327E030E0E20EF31EF701D1
:1022100010822CE431E0E20EF31EF70111921192CC
:1022200011928CE2819311921192119211927F017D
:10223000108220E83FEFE20EF31EF70111821082B8
:1022400024E330E0E20EF31EF70111921192119295
:1022500011921192119211921192119211927F0189
:10226000108211821282138229E230E0E20EF31E04
:10227000F70111927F0110822BE23FEFE20EF31E75
:1022800092E0F701908326ED30E0E20EF31E81E04C
:10229000F70180832BE23FEFE20EF31EF7019193EB
:1022A00091937F01908324E23EEFE20EF31EC7017B
:1022B0000E94491AC7010E94F8180F91FF90EF90F1
:1022C00008950F9300E00E94AF100F9108950F93AF
:1022D0001F93CF93DF93DC018B01EC01C658DD4FD8
:1022E0001982188240E0BE0106C04F5F2F5F3F4F4A
:1022F000FB0131832083FB0120813181F801E20F52
:10230000F31F8081882389F7469583E090E09983C5
:10231000888390E0ED01C658DD4F50E00BC0FD0111
:10232000E20FF31FE857FD4F8081980F2F5F3F4F5B
:1023300039832883288139812417350780F3892F31
:102340008095A40FB51FA957BD4F8C93DF91CF91F6
:102350001F910F910895AF92BF92CF92DF92EF92AB
:10236000FF920F931F93CF93DF937C018B01065550
:102370001F4FD8018C910A5A1040F801E855FF4FC1
:10238000813009F024C1C22EDD24DA01AC0DBD1D5F
:1023900083E28C938081813009F446C0813020F043
:1023A000823009F038C2AAC011961C9211970157C9
:1023B0001F4FF80181918F0112968C9312978081A3
:1023C0000059104013968C931397F701E658FD4F70
:1023D00011821082EF01FCE7CF2EF2E0DF2ECE0C4F
:1023E000DF1CB70162587D4FAD010FC0FA01E20F4B
:1023F000F31FA00FB11FA20FB31F1C968C918483F3
:102400008881998101969983888328813981F60191
:10241000A081B181FB018081918101968A1B9B0B78
:102420002817390718F3F7C111968C93B70166582E
:102430007D4FDB011D921C92EB0110C0FA01EA0FE7
:10244000FB1FEC0DFD1DA00FB11FA557BF4F8C91B9
:10245000828388819981019699838883A881B98133
:10246000A430B10558F3FB0111821082E701C65870
:10247000DD4F10C0FA01EA0FFB1FEC0DFD1DA00F90
:10248000B11FA957BF4F8C9186838881998101968E
:1024900099838883A881B981A430B10558F3198242
:1024A0001882E701C658DD4FECE7AE2EE2E0BE2E03
:1024B000AE0CBF1C970122583D4F11C0FA01E60F28
:1024C000F71FEC0DFD1DA00FB11FA60FB71F1C9627
:1024D0008C9182878881998101969983888368810C
:1024E0007981F501A081B181F90180819181019605
:1024F0008A1B9B0B6817790708F38DC111968C9383
:10250000C0E0D0E0D701A658BD4F06C0E9016F5F1B
:102510007F4F11967C936E936D917C911197F8018A
:10252000E60FF71FEF56FF4F80819E012F5F3F4F51
:10253000833261F71D921C92E701C658DD4F10C02F
:10254000FA01EA0FFB1FEC0DFD1DA00FB11FAF56E6
:10255000BF4F8C918283888199810196998388836A
:10256000A881B981A217B30758F319821882E7012D
:10257000C658DD4F7CE7A72E72E0B72EAE0CBF1C0D
:102580008EE792E0E80EF91E13C0FA01E60FF71F7E
:10259000E20FF31FEC0DFD1DA00FB11FA60FB71F1B
:1025A0001C968C9182838881998101969983888376
:1025B00068817981F501A081B181F70180819181E4
:1025C00001968A1B9B0B68177907F8F224C180815A
:1025D000813009F446C0813020F0823009F01BC1FF
:1025E000AEC030E0FA01E20FF31F108201571F4F17
:1025F000D8018D918D0181838C9100591040828387
:10260000F701E658FD4F11821082EF016CE7C62EEC
:1026100062E0D62ECE0CDF1CEEE7F2E0EE0EFF1EDF
:1026200011C0FA01E60FF71FE20FF31FA00FB11F51
:10263000A60FB71F1C968C91838388819981019680
:102640009983888368817981F601A081B181F7013E
:102650008081918101968A1B9B0B6817790708F38B
:10266000DAC030E0FA01E20FF31F8083B701665849
:102670007D4FDB011D921C92EB0110C0FA01EA0FA5
:10268000FB1FE20FF31FA00FB11FA557BF4F8C9187
:10269000818388819981019699838883A881B981F2
:1026A000A430B10558F3FB0111821082E701C6582E
:1026B000DD4F10C0FA01EA0FFB1FE20FF31FA00F5E
:1026C000B11FA957BF4F8C9185838881998101964D
:1026D00099838883A881B981A430B10558F3198200
:1026E0001882E701C658DD4F9CE7C92E92E0D92E2B
:1026F000CE0CDF1C8EE792E0E80EF91E11C0FA0145
:10270000E60FF71FE20FF31FA00FB11FA60FB71FB1
:102710001C968C9181878881998101969983888301
:1027200068817981F601A081B181F7018081918171
:1027300001968A1B9B0B6817790708F36CC0C22EA1
:10274000DD24FA01EC0DFD1D8083C0E0D0E0D7014F
:10275000A658BD4F06C0E9016F5F7F4F11967C936D
:102760006E936D917C911197F801E60FF71FEF566C
:10277000FF4F80819E012F5F3F4F833261F71D9293
:102780001C92E701C658DD4F10C0FA01EA0FFB1F8B
:10279000EC0DFD1DA00FB11FAF56BF4F8C91818373
:1027A00088819981019699838883A881B981A2172C
:1027B000B30758F319821882E701C658DD4F8CE73A
:1027C000A82E82E0B82EAE0CBF1C8EE792E0E80E79
:1027D000F91E13C0FA01E60FF71FE20FF31FEC0D0D
:1027E000FD1DA00FB11FA60FB71F1C968C918183F2
:1027F0008881998101969983888368817981F5011F
:10280000A081B181F7018081918101968A1B9B0B88
:1028100068177907F8F2DF91CF911F910F91FF9020
:10282000EF90DF90CF90BF90AF9008953F924F927E
:102830005F926F927F928F929F92AF92BF92CF9250
:10284000DF92EF92FF920F931F93DF93CF9300D00D
:1028500000D0CDB7DEB76B014A017901AA24A39459
:1028600010E022E730E0C20ED31E21E3422E9DE7A6
:10287000792E83E3382EBEE56B2EADE55A2E30C19E
:10288000D401A60FB71F8C91813111F090E04AC09E
:102890004C92F70180818F5F80838C917C926F5F77
:1028A0007F4F9401260F371F3C832B83615070406C
:1028B000FB013296FA83E98320C0EB81FC81B18071
:1028C000418349815A814F5F5F4F3296FC83EB838E
:1028D00029813A812E5F3F4F3A832983F701808116
:1028E0009801280F311DC901F60120813181820F25
:1028F000931F48175907A8F48B2DEB81FC81408169
:102900008083F70180819801280F311DC901F601EC
:1029100020813181820F931F29813A81281739073D
:1029200060F291E08C91833109F04DC0992309F058
:102930004AC03C92F70180818F5F80838C917C92AA
:102940006F5F7F4F9401260F371F3C832B836150AD
:102950007040FB013296FA83E98320C0EB81FC8151
:10296000B180418349815A814F5F5F4F3296FC832A
:10297000EB8329813A812E5F3F4F3A832983F70108
:1029800080819801280F311DC901F6012081318114
:10299000820F931F48175907A8F48B2DEB81FC81F8
:1029A00040818083F70180819801280F311DC90182
:1029B000F60120813181820F931F29813A812817E6
:1029C000390760F291E08C918E3709F04DC0992360
:1029D00009F04AC06C92F70180818F5F80838C91EF
:1029E0007C926F5F7F4F9401260F371F3C832B83B0
:1029F00061507040FB013296FA83E98320C0EB817D
:102A0000FC81B180418349815A814F5F5F4F32968B
:102A1000FC83EB8329813A812E5F3F4F3A832983E0
:102A2000F70180819801280F311DC901F60120812D
:102A30003181820F931F48175907A8F48B2DEB8122
:102A4000FC8140818083F70180819801280F311D2E
:102A5000C901F60120813181820F931F29813A81BA
:102A60002817390760F291E02C912D37C1F5992391
:102A7000B1F55C92F70180818F5F80838C912C93FC
:102A80006F5F7F4FF401E60FF71F6F5F7F4F17C037
:102A9000B1804183AB014F5F5F4F32966E5F7F4FD6
:102AA000D7018C919801280F311DC901D6012D91B4
:102AB0003C91820F931F4817590788F48B2D408152
:102AC0008083D7018C919801280F311DC901D6014F
:102AD0002D913C91820F931F68177907C8F2A39438
:102AE0006A2D70E0F70180819801280F311DC9011E
:102AF000D6012D913C91820F931F6817790708F436
:102B0000BFCE0F900F900F900F90CF91DF911F913C
:102B10000F91FF90EF90DF90CF90BF90AF909F907C
:102B20008F907F906F905F904F903F900895DF92CD
:102B3000EF92FF920F931F93CF93DF93890180E071
:102B400090E0F3E1DF2EEEE7EE2E31E1F32E37C019
:102B50002F5F3F4F9C919D3731F01196319624178E
:102B60003507B0F32DC02417350750F5E90121963C
:102B7000E60FF71F8181833361F0843318F48133CA
:102B800069F405C08D3549F08E3541F404C0FC92DE
:102B900005C0DC9203C0EC9201C09C9341505040B0
:102BA000F901E00FF11FE60FF71F02C0818180835A
:102BB0002F5F3F4F3196CE0124173507B8F39C01A4
:102BC0002417350738F4F901E00FF11FDB01AE0FD0
:102BD000BF1FC0CFDF91CF911F910F91FF90EF905A
:102BE000DF900895EF92FF920F931F93CF93DF939F
:102BF0008C01EB017A01FC01E658FD4F2D5F3F4F40
:102C00003183208323503040A0E0B0E0AF010BC0FF
:102C1000FE01E60FF71F8081A80FB11D6F5F7F4F88
:102C2000FA0171836083FA01608171816E157F05FD
:102C300078F3AF3FB10521F0AF3F11F081E008C05C
:102C400008521E4FC20FD31F8C81F801808380E091
:102C5000DF91CF911F910F91FF90EF900895EF9228
:102C6000FF920F931F93CF93DF93EC01CA5BDD4F6D
:102C7000E8808DEEE80E24978881C254D2408130DE
:102C800009F0C9C0CD5DDE4FF880C352D140FA943F
:102C90008E0106581D4FD8011D921C92B8012F2D90
:102CA00030E087E290E0289FA001299F500D389FD7
:102CB000500D11244C0F5D1F11C0FA01EA0FFB1FCC
:102CC000E05AFF4FAC0FBD1FA85BBD4F8C918083B6
:102CD000FB0180819181019691838083FB01A0811A
:102CE000B181A230B10548F3D8011D921C92AE010A
:102CF00046585D4F2F2D30E087E290E0289FB001CD
:102D0000299F700D389F700D11246C0F7D1F11C00D
:102D1000FB01EA0FFB1FEE59FF4FAC0FBD1FA65B77
:102D2000BD4F8C918083FA018081918101969183BE
:102D30008083FA01A081B181A430B10548F31182EA
:102D40001082BE0166587D4F2F2D30E087E290E063
:102D5000289FA001299F500D389F500D11244C0F22
:102D60005D1F12C0FA01EA0FFB1FEA59FF4FAC0FBB
:102D7000BD1FA25BBD4F8C918083DB018D919C9127
:102D8000119701968D939C93FB01A081B181A43092
:102D9000B10540F387E290E0289FF001299FF00DF4
:102DA000389FF00D1124EC0FFD1FEA57FF4FCE5A4C
:102DB000DD4F8881C255D2408083E658F040AE0195
:102DC0004A5B5D4FDA018D919C910D9720F1DB01FB
:102DD0001D921C929E0126583D4FBA01AF0111C0B1
:102DE000FA01EA0FFB1FE659FF4FAC0FBD1FAD5AAA
:102DF000BD4F8C918083F9018081918101969183EF
:102E00008083F901A081B181FB01808191810C97C0
:102E1000A817B90728F3CE5BDD4F8881C254D24092
:102E20008250843008F047C1CD5DDE4FF880C35238
:102E3000D140FA948E0106581D4FD8011D921C9264
:102E4000B8012F2D30E087E290E0289FA001299F54
:102E5000500D389F500D11244C0F5D1F11C0FA0109
:102E6000EA0FFB1FE05AFF4FAC0FBD1FA85BBD4F21
:102E70008C918083FB018081918101969183808375
:102E8000FB01A081B181A230B10548F3D8011D92A8
:102E90001C92AE0146585D4F2F2D30E087E290E046
:102EA000289FB001299F700D389F700D11246C0F61
:102EB0007D1F11C0FB01EA0FFB1FEE59FF4FAC0F46
:102EC000BD1FA65BBD4F8C918083FA0180819181EB
:102ED000019691838083FA01A081B181A430B1056C
:102EE00048F311821082AE0146585D4F2F2D30E01D
:102EF00087E290E0289FB001299F700D389F700DE8
:102F000011246C0F7D1F12C0FB01EA0FFB1FEA5951
:102F1000FF4FAC0FBD1FA25BBD4F8C918083DA01C8
:102F20008D919C91119701968D939C93FA01A081AC
:102F3000B181A430B10540F311821082AE01465830
:102F40005D4F0E2D10E02F2D30E087E290E0289F9E
:102F5000B001299F700D389F700D11246C0F7D1FDB
:102F600012C0FB01EA0FFB1FE659FF4FAC0FBD1F5C
:102F7000AE5ABD4F8C918083DA018D919C9111974F
:102F800001968D939C93FA01A081B181A017B1079E
:102F900040F311821082BE0166587D4F2F2D30E024
:102FA00087E290E0289FA001299F500D389F500D87
:102FB00011244C0F5D1F14C0FA01EA0FFB1FE258E9
:102FC000FF4FAC0FBD1FA00FB11FAD5ABD4F8C916D
:102FD0008083DB018D919C91119701968D939C9339
:102FE000FB01A081B181A230B10530F387E290E00E
:102FF000289FD001299FB00D389FB00D1124AC0F30
:10300000BD1FA058BF4FFE01EE0DF11DEB5AFD4F45
:1030100081918D9380818C93A158B040FB011182E6
:103020001082AE0146585D4FBD0114C0FB01EA0F8E
:10303000FB1FEE57FF4FAC0FBD1FA00FB11FA95ACA
:10304000BD4F8C918083DA018D919C9111970196EF
:103050008D939C93FA01A081B181A230B10530F328
:1030600011821082BE0166587D4F87E290E0289F52
:10307000A001299F500D389F500D11244C0F5D1F4A
:1030800014C0FA01EA0FFB1FEC57FF4FAC0FBD1F36
:10309000A00FB11FA75ABD4F8C918083DB018D918A
:1030A0009C91119701968D939C93FB01A081B18116
:1030B000A230B10530F3DF91CF911F910F91FF90B6
:1030C000EF900895CF92DF92EF92FF920F931F93AC
:1030D000CF93DF93EC016B017A01B901FC01E65853
:1030E000FD4F0D5F1F4F1183008303501040A0E080
:1030F000B0E09F010BC0F601E40FF51F8081A80F1F
:10310000B11D4F5F5F4FF90151834083F901408149
:1031100051814617570778F3AF3FB10519F0AF3F1C
:1031200009F05AC0F601E00FF11F9581D7011596FD
:103130008C911597981709F04FC0968116968C912F
:10314000981709F049C09B01201B310B293031052C
:1031500029F48781882309F442C03EC087818823EF
:10316000D9F5FE01E658FD4F11821082BF012950AA
:10317000304012C0FE01E40FF51FE85BFD4FD601A1
:10318000A40FB51FA00FB11F18968C9180834F5FBD
:103190005F4FFB0151834083DB014D915C914217EE
:1031A000530740F3CA5BDD4F39832883C654D240AE
:1031B000F70185818E3491F48681843479F422304C
:1031C000310530F0FE01ED5DFE4F80818F5F808321
:1031D000CE010E942F1602C081E001C080E0DF9185
:1031E000CF911F910F91FF90EF90DF90CF900895B6
:1031F000FC01E658FD4F11821082DF010BC0FC017B
:10320000E20FF31FE857FD4F10822F5F3F4F1196DB
:103210003C932E932D913C9111972E31310578F3EB
:103220000895CF92DF92EF92FF920F931F93CF9367
:10323000DF936C01FC01E658FD4F118210828F0173
:10324000E62EFF24E701CC0FDD1FCC0FDD1FCE0DD6
:10325000DF1D1CC0EC0FFD1F3B96EE0FFF1FEC0D9A
:10326000FD1D808191810E940380D8018D919C91E8
:103270001197FE01E80FF91F3B96EE0FFF1FEC0DB3
:10328000FD1D1182108201968D939C93D801ED91C2
:10329000FC91E530F105F0F28701000F111F0C0DD4
:1032A0001D1D075B1F4FD801ED91FC9115AA16AAB1
:1032B00017AA10AECF010E940380F801118210827C
:1032C000F601ED5AFF4F808181508083DF91CF91CD
:1032D0001F910F91FF90EF90DF90CF900895AF92E4
:1032E000BF92CF92DF92FF920F931F93CF93DF9302
:1032F0006C01FF2460E070E08C0106581D4FD8017E
:103300006D937C93EB01AA96CC0FDD1FCC0DDD1DD8
:1033100023C05F010894A11CB11CA881B981A555E7
:10332000BF4FBB96EE0FFF1FEC0DFD1D0190F0810E
:10333000E02DE555FF4F2D913D914D915C918081A0
:103340009181A281B38182179307A407B50754F432
:10335000F394F801B182A082D801ED91FC91E430A0
:10336000F105B8F2B4E0FB1621F4F62E65E070E04A
:1033700002C0F62EF3946F5F7F4F6530710508F43D
:10338000BECF0F2D10E0065D1F4F000F111F0C0D5B
:103390001D1DF801808191810E940380D8011D923A
:1033A0001C928F2DDF91CF911F910F91FF90DF9095
:1033B000CF90BF90AF900895AF92BF92CF92DF921F
:1033C000FF920F931F93CF93DF936C01FF2460E074
:1033D00070E08C0106581D4FD8016D937C93EB0172
:1033E000AA96CC0FDD1FCC0DDD1D23C05F01089414
:1033F000A11CB11CA881B981A555BF4FBB96EE0F8A
:10340000FF1FEC0DFD1D0190F081E02DE555FF4FF4
:103410002D913D914D915C9180819181A281B381EB
:10342000281739074A075B0754F4F394F801B1826F
:10343000A082D801ED91FC91E430F105B8F2B4E03E
:10344000FB1621F4F62E65E070E002C0F62EF39430
:103450006F5F7F4F6530710508F4BECF0F2D10E010
:10346000065D1F4F000F111F0C0D1D1DF8018081FF
:1034700091810E940380D8011D921C928F2DDF91B3
:10348000CF911F910F91FF90DF90CF90BF90AF90A1
:1034900008950F931F93CF93DF938C01FC01E6589F
:1034A000FD4F11821082EF0116C0BA96EE0FFF1F7A
:1034B000E00FF11F808191810E94038088819981B2
:1034C0008A96FC01EE0FFF1FE00FF11F11821082A0
:1034D000899799838883E881F981E530F10528F39C
:1034E000DF91CF911F910F910895AF92BF92CF922C
:1034F000DF92EF92FF920F931F93CF93DF93EC0134
:1035000009E4A02EB12CA80EB91EEE24FF241AE760
:10351000C12E12E0D12EC80ED91ED6011D921C92CA
:103520008701000F111F000F111F0E0D1F1D1CC062
:10353000E00FF11F3B96EE0FFF1FEC0FFD1F808188
:1035400091810E940380F60180819181F801E80F4A
:10355000F91F3B96EE0FFF1FEC0FFD1F118210822B
:103560000196D6018D939C93D601ED91FC91E530A7
:10357000F105F0F2D501ED91FC9115AA16AA17AA52
:1035800010AECF010E940380F501119211925F01EC
:103590000894E11CF11CF5E0EF16F10409F0BDCF31
:1035A000CD5ADF4F1882C65ADD4F188222961882F4
:1035B000DF91CF911F910F91FF90EF90DF90CF900F
:1035C000BF90AF900895AF92BF92CF92DF92EF92EB
:1035D000FF920F931F93CF93DF93EC01FC01E35510
:1035E000FD4F108260E070E01AE7A12E12E0B12ECC
:1035F000A80EB91E7F01D5016D937C938B01000F3E
:10360000111F0C0F1D1F075B1F4F28C0D8018D9184
:103610009C916F010894C11CD11CF601EE0FFF1F95
:10362000EC0FFD1FE75BFF4F0190F081E02DDC0107
:10363000D5962D913D914D915C91D89785A996A9EC
:10364000A7A9B0AD281739074A075B076CF4F70143
:1036500080818F5F8083D501CD92DC92D501ED9181
:10366000FC91E430F10590F2F7018081843021F47F
:10367000608365E070E004C0862F8F5FD7018C9374
:103680006F5F7F4F6530710508F4B5CFFE01E658D6
:10369000FD4F118210828F017DEAE72E72E0F72E36
:1036A000EC0EFD1E2FC0F701808190E0FC01EE0FB3
:1036B000FF1FEE0FFF1FE80FF91FE20FF31F3B96EE
:1036C000EE0FFF1FEC0FFD1F808191810E94038090
:1036D000D7018C9190E0FC01EE0FFF1FEE0FFF1F52
:1036E000E80FF91FD8018D919C911197E80FF91FF0
:1036F0003B96EE0FFF1FEC0FFD1F1182108201960B
:103700008D939C93F801208131812530310558F249
:10371000D701EC91F0E0EE0FFF1FEC0FFD1FE75B10
:10372000FF4F0190F081E02D15AA16AA17AA10AE3E
:10373000EC91F0E0EE0FFF1FEC0FFD1FE75BFF4F7A
:10374000808191810E940380D701EC91F0E0EE0F1F
:10375000FF1FEC0FFD1FE75BFF4F11821082FE0180
:10376000ED5AFF4F808181508083C155DD4F188213
:10377000DF91CF911F910F91FF90EF90DF90CF904D
:10378000BF90AF9008952F923F924F925F926F92A9
:103790007F928F929F92AF92BF92CF92DF92EF92E1
:1037A000FF920F931F93DF93CF93CDB7DEB7609750
:1037B0000FB6F894DEBF0FBECDBF7C016B01FC01DC
:1037C000E658FD4F118210822FEA32E0E20EF31E1E
:1037D000D7018C9121E53DEFE20EF31E882311F114
:1037E000DF0110C0F901EE0FFF1FEE0DFF1DE75BBB
:1037F000FF4F80819181892B59F02F5F3F4F1196A8
:103800003C932E932D913C9111972530310550F327
:103810004DEA52E0E40EF51ED7012C93E3E5FDEFEF
:10382000EE0EFF1E2AE732E0E20EF31ED7011D92D4
:103830001C92E8ECFFEFEE0EFF1ED7018C91EEEB31
:10384000FDEFEE0EFF1E813079F026E432E0E20E4D
:10385000F31ED7018D919C91EAEBFDEFEE0EFF1E5A
:103860000C9770F50C94BD2D20E832E0E20EF31EAB
:10387000D7018C91E0E8FDEFEE0EFF1E882379F46E
:1038800026E432E0E20EF31ED7018D919C91EAEB23
:10389000FDEFEE0EFF1E059798F40C94BD2D8130C0
:1038A00079F426E432E0E20EF31ED7018D919C916B
:1038B000EAEBFDEFEE0EFF1E0B9710F40C94BD2DFE
:1038C00000E010E06624882477249924B701665824
:1038D0007D4FE2E44E2EE2E05E2E4E0C5F1C51E87E
:1038E000252E52E0352E2E0C3F1C970120583D4FBF
:1038F0003E872D87DB011D921C92F801EE0FFF1F02
:10390000EE0DFF1DE75BFF4F0190F081E02D85A9D3
:1039100096A9A7A9B0AD181619061A061B060CF031
:103920008CC3D2018C91813009F0D0C1AD85BE85A8
:103930008C91882309F0E1C0D60114969C911497CC
:103940008081981709F079C3AA24BB2416968C911C
:10395000833219F431E0A32EB12C96012A0D3B1DC0
:10396000D90116968C91DB011D921C928130A9F031
:10397000813020F0823009F088C070C09389D9016D
:1039800017968C911797981709F07FC0948918960D
:103990008C91981709F079C07CC0FB0111821082CC
:1039A000A801440F551F4E0D5F1D475B5F4F17C0A9
:1039B000FA01A081B181A20FB31FF601E20FF31F3C
:1039C000EA0DFB1D1B969C918781981719F088249E
:1039D00083940BC02F5F3F4FDB012D933C93FB0182
:1039E000208131812430310518F3DB011D921C92B6
:1039F000A801440F551F4E0D5F1D475B5F4F14C05C
:103A0000FA01A081B181A20FB31FF601E20FF31FEB
:103A1000EA0DFB1D1F969C9183859817A1F52F5FDA
:103A20003F4FDB012D933C93FB01208131812430FA
:103A3000310530F325C0992787FD9095F601E40FF5
:103A4000F51FEA0DFB1D278130E082179307D9F49B
:103A50004F5F5F4FFB015183408307C0D801AA0F1E
:103A6000BB1FAE0DBF1DA75BBF4FFB014081518146
:103A7000ED91FC911197E40FF51F85898332D9F6FA
:103A8000882039F002C088248394F1E06F1609F091
:103A9000D4C2702E21E0A216B10479F4E02FF0E038
:103AA000EE0FFF1FEE0DFF1DE75BFF4F0190F08152
:103AB000E02DD60115968C9182AFE72DF0E0EE0F48
:103AC000FF1FEE0DFF1DE75BFF4FA081B181DB966D
:103AD0008C91DB978F5FDB968C930190F081E02DCA
:103AE000D60112962C91129783A994A9820F911D49
:103AF00094AB83AB15969C90E3C0813009F09DC2D6
:103B0000D6011A969C911A978081981709F095C250
:103B1000AA24BB241C968C91833219F4B1E0AB2EFD
:103B2000B12C96012A0D3B1DD9011C968C91DB010D
:103B30001D921C928130A9F0813020F0823009F072
:103B400088C070C09389D9011D968C911D979817D4
:103B500009F07FC094891E968C91981709F079C05E
:103B60007CC0FB0111821082A801440F551F4E0D2D
:103B70005F1D475B5F4F17C0FA01A081B181A20FA3
:103B8000B31FF601E20FF31FEA0DFB1D1B969C917C
:103B90008585981719F0882483940BC02F5F3F4FB9
:103BA000DB012D933C93FB012081318124303105D1
:103BB00018F3DB011D921C92A801440F551F4E0DF6
:103BC0005F1D475B5F4F14C0FA01A081B181A20F56
:103BD000B31FF601E20FF31FEA0DFB1D1F969C9128
:103BE00081899817A1F52F5F3F4FDB012D933C93FF
:103BF000FB01208131812430310530F325C0992724
:103C000087FD9095F601E40FF51FEA0DFB1D258554
:103C100030E082179307D9F44F5F5F4FFB01518368
:103C2000408307C0D801AA0FBB1FAE0DBF1DA75B05
:103C3000BF4FFB0140815181ED91FC911197E40F41
:103C4000F51F85898332D9F6882039F002C088248F
:103C50008394F1E06F1609F0F0C1702E21E0A216F6
:103C6000B10479F4E02FF0E0EE0FFF1FEE0DFF1D21
:103C7000E75BFF4F0190F081E02DD6011B968C9100
:103C800082AFE72DF0E0EE0FFF1FEE0DFF1DE75BAB
:103C9000FF4FA081B181DB968C91DB978F5FDB9624
:103CA0008C930190F081E02DD60118962C911897F5
:103CB00083A994A9820F911D94AB83AB1B969C9012
:103CC0009A94B4E0B91508F0B4C1F8C682508430B3
:103CD00008F0B3C1D1018C91882309F0D2C0D6017C
:103CE0001B969C911B978081981709F0A6C1AA2466
:103CF000BB241D968C91833219F431E0A32EB12C94
:103D000096012A0D3B1DD9011D968C91DB011D9258
:103D10001C928130A9F0813020F0823009F088C0F7
:103D200070C09389D9011E968C911E97981709F03F
:103D30007FC094891F968C91981709F079C07CC038
:103D4000FB0111821082A801440F551F4E0D5F1D0B
:103D5000475B5F4F17C0FA01A081B181A20FB31F6B
:103D6000F601E20FF31FEA0DFB1D1B969C91868561
:103D7000981719F0882483940BC02F5F3F4FDB0105
:103D80002D933C93FB01208131812430310518F3C0
:103D9000DB011D921C92A801440F551F4E0D5F1DA3
:103DA000475B5F4F14C0FA01A081B181A20FB31F1E
:103DB000F601E20FF31FEA0DFB1D1F969C9182890D
:103DC0009817A1F52F5F3F4FDB012D933C93FB012B
:103DD000208131812430310530F325C0992787FDBA
:103DE0009095F601E40FF51FEA0DFB1D268530E0E6
:103DF00082179307D9F44F5F5F4FFB0151834083D4
:103E000007C0D801AA0FBB1FAE0DBF1DA75BBF4FD8
:103E1000FB0140815181ED91FC911197E40FF51F59
:103E200085898332D9F6882039F002C088248394AA
:103E3000F1E06F1609F001C1702E21E0A216B10465
:103E400079F4E02FF0E0EE0FFF1FEE0DFF1DE75BB2
:103E5000FF4F0190F081E02DD6011C968C9182AF2E
:103E6000E72DF0E0EE0FFF1FEE0DFF1DE75BFF4FAC
:103E70000190F081E02D83AD8F5F83AFF6019484D4
:103E8000D3C0823009F0D9C0D60151969C91519788
:103E90008081981709F0D1C0AA24BB2453968C9135
:103EA000833219F4B1E0AB2EB12C96012A0D3B1DE3
:103EB000D90153968C91DB011D921C928130A9F09F
:103EC000813020F0823009F088C070C09389D90118
:103ED00054968C915497981709F07FC09489559601
:103EE0008C91981709F079C07BC0FB011182108278
:103EF000A801440F551F4E0D5F1D475B5F4F17C054
:103F0000FA01A081B181A20FB31FF601E20FF31FE6
:103F1000EA0DFB1D1B969C918489981719F0882443
:103F200083940BC02F5F3F4FDB012D933C93FB012C
:103F3000208131812430310518F3DB011D921C9260
:103F4000A801440F551F4E0D5F1D475B5F4F14C006
:103F5000FA01A081B181A20FB31FF601E20FF31F96
:103F6000EA0DFB1D1F969C91808D9817A1F52F5F80
:103F70003F4FDB012D933C93FB01208131812430A5
:103F8000310530F325C0992787FD9095F601E40FA0
:103F9000F51FEA0DFB1D248930E082179307D9F441
:103FA0004F5F5F4FFB015183408307C0D801AA0FC9
:103FB000BB1FAE0DBF1DA75BBF4FFB0140815181F1
:103FC000ED91FC911197E40FF51F85898332D9F6A5
:103FD000882031F002C088248394F1E06F1669F5DF
:103FE000702E21E0A216B10479F4E02FF0E0EE0F7C
:103FF000FF1FEE0DFF1DE75BFF4F0190F081E02DED
:10400000D60152968C9182AFE72DF0E0EE0FFF1FA4
:10401000EE0DFF1DE75BFF4F0190F081E02D83ADBA
:104020008F5F83AFF60192889A94F4E0F91508F453
:1040300045C505E010E0662463940F5F1F4F05300F
:10404000110508F457CC2AE732E0E20EF31ED7013F
:104050001D921C92E6E8FDEFEE0EFF1E662009F0B1
:1040600015C6870103551D4FD8017C90EFEAF2E099
:10407000EE0EFF1E81E0D7018C93E4EAFDEFEE0E19
:10408000FF1ED7018C91EDEAFFEFEE0EFF1E85308B
:1040900028F0C7010E94E31AD8017C90F701ED5A7D
:1040A000FF4F80818F5F8083A72CBB2481E090E04D
:1040B0006EE370E00E943A7FFC012501440C551C20
:1040C0004E0C5F1C29E430E0420E531ED2018D934A
:1040D0009C93009709F4F8C522E432E0E20EF31E47
:1040E000D7018C912EEB3DEFE20EF31E813009F0EB
:1040F00084C240E852E0E40EF51ED7018C9120E81E
:104100003DEFE20EF31E882309F022C112A6D20170
:10411000ED91FC91D60114968C918083F20100817F
:1041200011810E94BC04D801D5966D937D938D9327
:104130009C93D897F701E658FD4F118210829F019A
:10414000A20111C0FA01608171816A0F7B1FAC0D61
:10415000BD1D8C91DB0119968C93F90180819181B1
:10416000019691838083F901A081B181A230B105CC
:1041700048F340E050E0D60116968C91833211F45A
:1041800041E050E0D501AA0FBB1FAE0DBF1DA75BDC
:10419000BF4F2D913C911197B601640F751FFB0124
:1041A0008681F90181A7970126583D4FF9011182B7
:1041B00010820D911C911197F80181A5813089F031
:1041C000813020F0823009F089C063C0FB01878113
:1041D000F801838BED91FC91DB0118968C91848B17
:1041E0007DC0F901118210824901BD0114C0FB019B
:1041F000008111810A0F1B1FAC0DBD1DA40FB51F3F
:1042000017968C91D8011B968C93F4018081918133
:10421000019691838083F401A081B181A430B1051E
:1042200030F3D9011D921C92970126583D4FB501DC
:10423000660F771F6E0D7F1D675B7F4F14C0FB01FC
:10424000008111810A0F1B1FAC0DBD1DA40FB51FEE
:104250001B968C91D8011F968C93F90180819181D6
:10426000019691838083F901A081B181A430B105C9
:1042700030F334C0ED91FC911197E80FF91F258BB5
:10428000FB0180819181019691838083459710F095
:104290000CC0B901FB0180819181F601E80FF91F83
:1042A000E40FF51F2781233229F7F501EE0FFF1FD9
:1042B000EE0DFF1DE75BFF4F0190F081E02D2AE737
:1042C00032E0E20EF31ED7018D919C9126E83DEF7E
:1042D000E20EF31EE80FF91F83E2858B4130510592
:1042E00071F4F501EE0FFF1FEE0DFF1DE75BFF4FB1
:1042F0000190F081E02DD60115968C9182AFD50109
:10430000AA0FBB1FAE0DBF1DA75BBF4FED91FC9168
:10431000119791E093AFF60195809A94F4E0F91526
:1043200008F4CCC32D913C911197F6018281F901DB
:1043300083AB14AAF6018381F90182ABED91FC9164
:1043400082A98150823010F493A7A0C413A69EC402
:10435000813009F09BC482A7D201ED91FC91D60176
:104360001A968C918083F201008111810E94BC0415
:10437000D801D5966D937D938D939C93D897A70183
:1043800046585D4FFA01118210829A01B20111C0A4
:10439000FB01008111810A0F1B1FAC0DBD1D8C910B
:1043A000D80115968C93F9018081918101969183B2
:1043B0008083F901A081B181A430B10548F3DA010D
:1043C0001D921C92970126583D4FA501440F551F81
:1043D0004E0D5F1D475B5F4F12C0FA016081718116
:1043E0006A0F7B1FAC0DBD1D14968C91DB011196DD
:1043F0008C93F90180819181019691838083F901E9
:10440000A081B181A430B10540F360E070E0D60135
:104410001C968C91833211F461E070E0D501AA0FF3
:10442000BB1FAE0DBF1DA75BBF4F2D913C911197D8
:10443000A601460F571FFA018485F90181A797014C
:1044400026583D4FF901118210820D911C91119750
:10445000F80181A5813089F0813020F0823009F0A7
:1044600089C063C0FA018585F801838BED91FC91C9
:10447000DA011E968C91848B7DC0F9011182108225
:104480004901AD0114C0FA01008111810A0F1B1FFF
:10449000AC0DBD1DA60FB71F1D968C91D8011B96A4
:1044A0008C93F40180819181019691838083F40142
:1044B000A081B181A430B10530F3D9011D921C92C5
:1044C000970126583D4FA501440F551F4E0D5F1D06
:1044D000475B5F4F14C0FA01008111810A0F1B1F57
:1044E000AC0DBD1DA60FB71F51968C91D8011F961C
:1044F0008C93F90180819181019691838083F901E8
:10450000A081B181A430B10530F334C0ED91FC91AC
:104510001197E80FF91F258BFA018081918101968F
:1045200091838083459710F00CC0A901FA01808126
:104530009181F601E80FF91FE60FF71F2585233259
:1045400029F7F501EE0FFF1FEE0DFF1DE75BFF4F93
:104550000190F081E02D2AE732E0E20EF31ED70150
:104560008D919C9126E83DEFE20EF31EE80FF91FB6
:1045700083E2858BD501AA0FBB1FAE0DBF1DA75BC4
:10458000BF4F2D913C911197F6018085F90183ABC6
:1045900014AAF6018185F90182ABED91FC9182A903
:1045A0008150823018F481E083A701C013A66130E6
:1045B000710571F4F501EE0FFF1FEE0DFF1DE75BB6
:1045C000FF4F0190F081E02DD6011B968C9182AFB8
:1045D000AA0CBB1CAE0CBF1CE9E4F0E0AE0EBF1E83
:1045E000D501ED91FC9181E083AFF60193849A941B
:1045F000F4E0F91508F04AC361C28250843008F033
:1046000045C321E832E0E20EF31ED7018C912FE77B
:104610003DEFE20EF31E882309F066C1D6011B961A
:104620008C918083F201008111810E94BC04D80129
:10463000D5966D937D938D939C93D89740E050E0F1
:10464000F6018585833211F441E050E0D501AA0FCF
:10465000BB1FAE0DBF1DA75BBF4F2D913C911197A6
:10466000B601640F751FFB018585F90181A79701CC
:1046700026583D4FF901118210820D911C9111971E
:10468000F80181A5813089F0813020F0823009F075
:1046900089C063C0FB018685F801838BED91FC9195
:1046A000DB011F968C91848B7DC0F90111821082F1
:1046B0004901BD0114C0FB01008111810A0F1B1FBC
:1046C000AC0DBD1DA40FB51F1E968C91D8011B9675
:1046D0008C93F40180819181019691838083F40110
:1046E000A081B181A430B10530F3D9011D921C9293
:1046F000970126583D4FB501660F771F6E0D7F1D40
:10470000675B7F4F14C0FB01008111810A0F1B1FE3
:10471000AC0DBD1DA40FB51F52968C91D8011F96EC
:104720008C93F90180819181019691838083F901B5
:10473000A081B181A430B10530F334C0ED91FC917A
:104740001197E80FF91F258BFB018081918101965C
:1047500091838083459710F00CC0B901FB018081E3
:104760009181F601E80FF91FE40FF51F268523322A
:1047700029F7F501EE0FFF1FEE0DFF1DE75BFF4F61
:104780000190F081E02D2AE732E0E20EF31ED7011E
:104790008D919C9126E83DEFE20EF31EE80FF91F84
:1047A00083E2858B4130510571F4F501EE0FFF1F57
:1047B000EE0DFF1DE75BFF4F0190F081E02DD6016C
:1047C0001C968C9182AFD501AA0FBB1FAE0DBF1DE9
:1047D000A75BBF4FED91FC91119781E083AFF6018C
:1047E00094849A94F4E0F91508F468C19701265866
:1047F0003D4FF901118210828901AD0111C0FA010A
:10480000608171816A0F7B1FAC0DBD1D8C91DB0136
:1048100015968C93F8018081918101969183808314
:10482000F801A081B181A430B10548F3D9011D92EE
:104830001C92970126583D4FA501440F551F4E0D60
:104840005F1D475B5F4F12C0FA01608171816A0F83
:104850007B1FAC0DBD1D14968C91DB0111968C93C2
:10486000F90180819181019691838083F901A08172
:10487000B181A430B10540F311821082970126580E
:104880003D4FA501440F551FD701A40FB51FA75BCE
:10489000BF4F11C06D917C911197680F791F8C0DDE
:1048A0009D1DFC018085FB018187F901808191813B
:1048B000019691838083F9018081918182309105F5
:1048C00048F3D701A40FB51FA75BBF4FED91FC9133
:1048D000119713A62D913C911197F6018285F9014C
:1048E00082ABED91FC91CDC1823009F0CFC1D601F0
:1048F00051968C918083F201008111810E94BC0449
:10490000D801D5966D937D938D939C93D89740E075
:1049100050E0F6018389833211F441E050E0D50183
:10492000AA0FBB1FAE0DBF1DA75BBF4F2D913C91C2
:104930001197B601640F751FFB018389F90181A7E7
:10494000970126583D4FF901118210820D911C915B
:104950001197F80181A5813089F0813020F08230F3
:1049600009F089C063C0FB018489F801838BED9154
:10497000FC91DB0155968C91848B7DC0F9011182ED
:1049800010824901BD0114C0FB01008111810A0F91
:104990001B1FAC0DBD1DA40FB51F54968C91D801E3
:1049A0001B968C93F4018081918101969183808381
:1049B000F401A081B181A430B10530F3D9011D9279
:1049C0001C92970126583D4FB501660F771F6E0D5B
:1049D0007F1D675B7F4F14C0FB01008111810A0FAF
:1049E0001B1FAC0DBD1DA40FB51F58968C91D8018F
:1049F0001F968C93F9018081918101969183808328
:104A0000F901A081B181A430B10530F334C0ED913A
:104A1000FC911197E80FF91F258BFB018081918193
:104A2000019691838083459710F00CC0B901FB017A
:104A300080819181F601E80FF91FE40FF51F2489A9
:104A4000233229F7F501EE0FFF1FEE0DFF1DE75B87
:104A5000FF4F0190F081E02D2AE732E0E20EF31ED5
:104A6000D7018D919C9126E83DEFE20EF31EE80FF1
:104A7000F91F83E2858B4130510571F4F501EE0F8A
:104A8000FF1FEE0DFF1DE75BFF4F0190F081E02D52
:104A9000D60152968C9182AFD501AA0FBB1FAE0DE5
:104AA000BF1DA75BBF4FED91FC91119781E083AFD4
:104AB000F60192889A94F4E0F91518F4C701672D6D
:104AC0002BC5970126583D4FF901118210828901AB
:104AD000AD0111C0FA01608171816A0F7B1FAC0DBD
:104AE000BD1D8C91DB0115968C93F801808191811D
:104AF000019691838083F801A081B181A430B10532
:104B000048F3D9011D921C92970126583D4FA501EB
:104B1000440F551F4E0D5F1D475B5F4F12C0FA01DA
:104B2000608171816A0F7B1FAC0DBD1D14968C9145
:104B3000DB0111968C93F90180819181019691831B
:104B40008083F901A081B181A430B10540F31182C5
:104B50001082970126583D4FA501440F551FB701FC
:104B6000640F751F675B7F4F12C0FB0100811181CD
:104B70000A0F1B1FAC0DBD1D18968C91D8011996FC
:104B80008C93F90180819181019691838083F90151
:104B9000A081B181A230B10540F3F701E40FF51F08
:104BA000E75BFF4FA081B18182E09B968C934081AF
:104BB0005181D6011A968C91DA019C968C930190C2
:104BC000F081E02DD6011B968C9185A7F901118209
:104BD0001082970126583D4FA501440F551F4E0DD9
:104BE0005F1D475B5F4F12C0FA01608171816A0FE0
:104BF0007B1FAC0DBD1D1C968C91DB019E968C938A
:104C0000F90180819181019691838083F901A081CE
:104C1000B181A230B10540F311821082970126586C
:104C20003D4FA501440F551FD701A40FB51FA75B2A
:104C3000BF4F11C06D917C911197680F791F8C0D3A
:104C40009D1DFC018685FB0180ABF901808191816E
:104C5000019691838083F901808191818230910551
:104C600048F3F701E40FF51FE75BFF4F2081318127
:104C7000D60150968C91D901D2968C930190F081F7
:104C8000E02D82A9823011F481E083A7072D10E086
:104C9000A92CBB2481E090E068E670E00E943A7F96
:104CA000AC01F801EE0FFF1FEE0FFF1FE00FF11F29
:104CB000EA0DFB1D3B96EE0FFF1FEE0DFF1D51830E
:104CC00040834115510521F4C7010E94751A26C47D
:104CD00022E432E0E20EF31ED7019C912EEB3DEF71
:104CE000E20EF31E913009F0A2C1A0E8B2E0EA0E94
:104CF000FB1ED7018C9120E83DEFE20EF31E8823C6
:104D000009F0BCC04A595F4FD60115968C91DA0163
:104D10008C93D60116968C910190F081E02D833210
:104D200021F4E959FF4F908303C0E959FF4F1082E6
:104D3000F801EE0FFF1FEE0FFF1FE00FF11FEA0D4E
:104D4000FB1D3B96EE0FFF1FEE0DFF1D0190F08146
:104D5000E02DE959FF4F6081862E9924D701A6588E
:104D6000BD4F11961C921E92F801EE0FFF1FEE0D23
:104D7000FF1DE75BFF4F0190F081E02D81A58130A1
:104D800071F0813018F0823039F403C082E090E095
:104D90001CC040E050E00BC080E090E016C088E00E
:104DA00090E013C02F5F3F4F11963C932E932D91AF
:104DB0003C911197F601E20FF31FE80DF91D878171
:104DC0004F5F5F4F833271F7CA01695F680F262F0B
:104DD00030E0F701EA5BFD4F8081918182179307F4
:104DE00010F431832083F801EE0FFF1FEE0FFF1F39
:104DF000E00FF11FEA0DFB1D3B96EE0FFF1FEE0DBE
:104E0000FF1D608171816C597F4F46E452E0E40ED2
:104E1000F51ED7018D919C914AEB5DEFE40EF51ED6
:104E2000821B930BDB018D939C93D701A658BD4F3A
:104E300011961C921E924D01AF0110C06E0F7F1F84
:104E4000EC0DFD1DE20FF31F8081FB018083D40177
:104E50008D919C91119701968D939C93D401ED9126
:104E6000FC91DA016D917C916C597F4FDB018D9142
:104E70009C9164567040E817F90700F3E0E8F2E00F
:104E8000EE0EFF1ED7019C91E0E8FDEFEE0EFF1E37
:104E9000913009F0CCC0F801EE0FFF1FEE0FFF1F9D
:104EA000E00FF11FEA0DFB1D3B96EE0FFF1FEE0D0D
:104EB000FF1D208131812A593F4FD6011B968C91CD
:104EC000D9018C93D6011C968C910190F081E02D34
:104ED000833221F4E959FF4F908303C0E959FF4F12
:104EE0001082F801EE0FFF1FEE0FFF1FE00FF11F02
:104EF000EA0DFB1D3B96EE0FFF1FEE0DFF1D01900F
:104F0000F081E02DE959FF4F6081862E9924D70169
:104F1000A658BD4F11961C921E92F801EE0FFF1F6E
:104F2000EE0DFF1DE75BFF4F0190F081E02D81A5A5
:104F3000813071F0813018F0823039F403C082E0A2
:104F400090E01CC040E050E00BC080E090E016C054
:104F500088E090E013C02F5F3F4F11963C932E9353
:104F60002D913C911197F601E20FF31FE80DF91D09
:104F700085854F5F5F4F833271F7CA01635F680FAA
:104F8000262F30E0F701EA5BFD4F80819181821787
:104F9000930710F431832083F801EE0FFF1FEE0F0B
:104FA000FF1FE00FF11FEA0DFB1D3B96EE0FFF1FE9
:104FB000EE0DFF1D608171816C597F4F46E452E018
:104FC000E40EF51ED7018D919C914AEB5DEFE40E46
:104FD000F51E821B930BDB018D939C93D701A65882
:104FE000BD4F11961C921E924D01AF0110C06E0F65
:104FF0007F1FEC0DFD1DE20FF31F8081FB018083FD
:10500000D4018D919C91119701968D939C93D4011D
:10501000ED91FC91DA016D917C916C597F4FDB0130
:105020008D919C9164567040E817F90700F3E2E413
:10503000F2E0EE0EFF1ED7018C91EEEBFDEFEE0ECF
:10504000FF1E8250843008F0ABC121E832E0E20E4E
:10505000F31ED7018C91EFE7FDEFEE0EFF1E8823C4
:1050600009F0CEC0F801EE0FFF1FEE0FFF1FE00F9B
:10507000F11FEA0DFB1D3B96EE0FFF1FEE0DFF1D0E
:10508000208131812A593F4FD6011C968C91D9013C
:105090008C93D6011D968C910190F081E02D833286
:1050A00029F4E959FF4F81E0808303C0E959FF4F9C
:1050B0001082F801EE0FFF1FEE0FFF1FE00FF11F30
:1050C000EA0DFB1D3B96EE0FFF1FEE0DFF1D01903D
:1050D000F081E02DE959FF4F6081862E9924D70198
:1050E000A658BD4F11961C921E92F801EE0FFF1F9D
:1050F000EE0DFF1DE75BFF4F0190F081E02D81A5D4
:10510000813071F0813018F0823039F403C082E0D0
:1051100090E01CC040E050E00BC080E090E016C082
:1051200088E090E013C02F5F3F4F11963C932E9381
:105130002D913C911197F601E20FF31FE80DF91D37
:1051400086854F5F5F4F833271F7CA01625F680FD8
:10515000262F30E0F701EA5BFD4F808191818217B5
:10516000930710F431832083F801EE0FFF1FEE0F39
:10517000FF1FE00FF11FEA0DFB1D3B96EE0FFF1F17
:10518000EE0DFF1D608171816C597F4F46E452E046
:10519000E40EF51ED7018D919C914AEB5DEFE40E74
:1051A000F51E821B930BDB018D939C93D701A658B0
:1051B000BD4F11961C921E925D01AF0110C06E0F83
:1051C0007F1FEC0DFD1DE20FF31F8081FB0180832B
:1051D000D5018D919C91119701968D939C93D5014A
:1051E000ED91FC91DA016D917C916C597F4FDB015F
:1051F0008D919C9164567040E817F90700F3D0C078
:10520000823009F0CDC0F801EE0FFF1FEE0FFF1F37
:10521000E00FF11FEA0DFB1D3B96EE0FFF1FEE0D99
:10522000FF1D208131812A593F4FD60152968C9122
:10523000D9018C93D60153968C910190F081E02D89
:10524000833229F4E959FF4F81E0808303C0E95993
:10525000FF4F1082F801EE0FFF1FEE0FFF1FE00F50
:10526000F11FEA0DFB1D3B96EE0FFF1FEE0DFF1D1C
:105270000190F081E02DE959FF4F6081862E99243D
:10528000D701A658BD4F11961C921E92F801EE0F41
:10529000FF1FEE0DFF1DE75BFF4F0190F081E02D3A
:1052A00081A5813071F0813018F0823039F403C06B
:1052B00082E090E01CC040E050E00BC080E090E055
:1052C00016C088E090E013C02F5F3F4F11963C93CB
:1052D0002E932D913C911197F601E20FF31FE80DEB
:1052E000F91D87894F5F5F4F833271F7CA016C5E8A
:1052F000680F262F30E0F701EA5BFD4F8081918136
:105300008217930710F431832083F801EE0FFF1FFB
:10531000EE0FFF1FE00FF11FEA0DFB1D3B96EE0F96
:10532000FF1FEE0DFF1D608171816C597F4F46E4B8
:1053300052E0E40EF51ED7018D919C914AEB5DEF92
:10534000E40EF51E821B930BDB018D939C93D7011A
:10535000A658BD4F11961C921E925D01AF0110C060
:105360006E0F7F1FEC0DFD1DE20FF31F8081FB010F
:105370008083D5018D919C91119701968D939C937B
:10538000D501ED91FC91DA016D917C916C597F4FC3
:10539000DB018D919C9164567040E817F90700F38A
:1053A000F701E85BFF4F80818F5F8083853009F4D0
:1053B0001082000F111F0E0D1F1D075B1F4FD8011C
:1053C000ED91FC9193AD82AD981711F481E081AF1E
:1053D00099E4C92ED12CCE0CDF1C662477248701DA
:1053E00006581D4F83E5282E312C2E0C3F1CF7014B
:1053F000E355FD4FFA83E983970121553D4F3C83E7
:105400002B83A701415A5F4F5E834D83C7018E5B9B
:105410009D4F98878F83D701AF57BD4FBA87A98714
:10542000F701E752FE4FFC87EB87D8011D921C92D3
:105430000E94BC04D601ED91FC91309709F48FC312
:1054400025A936A947A950AD12161306140615064C
:105450000CF085C3621B730B840B950B69557B4164
:10546000804090400CF037C381AD813009F000C31B
:10547000B62CE981FA816082AB81BC811C92ED81FE
:10548000FE8180818F5F8083D8011D921C920FC0A6
:10549000F901BA96EE0FFF1FEE0DFF1D808191817D
:1054A000892B59F02F5F3F4FF80131832083D801BA
:1054B0002D913C912530310558F3E22FAD81BE810D
:1054C0008C91853090F0AB85BC858C91813029F032
:1054D000813038F0823049F41DC0C7010E94DC19C8
:1054E00003C0C7010E946F19E82F4E2E552481E09A
:1054F00090E064EB70E00E943A7FAC019201265D7F
:105500003F4F220F331F2E0D3F1DF90191838083E2
:10551000009731F4C7016B2D0E9411198FEF2EC334
:10552000D1018C9181508C9345555F4FD601ED91FF
:10553000FC9185A896A8A7A8B0ACDA018D929D929F
:10554000AD92BC9213974F5250408081FA018083F4
:10555000D901ED91FC91E955FF4FD6018D919C91B8
:10556000DC019A968C918083F901A081B181F601CA
:1055700080819181FC0183A518968C93AF81B885B9
:105580008C91813009F060C0F901A081B181A955E9
:10559000BF4F8C91A75AB040813009F048C0D80164
:1055A0001D921C92A90116C0FA01A081B181A80F19
:1055B000B91FAF57BF4FF60120813181280F391F26
:1055C000F90185818C93D8018D919C911197019659
:1055D0008D939C93F801808191818430910520F313
:1055E00011821082A201465D5F4F440F551F4E0D80
:1055F0005F1D16C0FA01A081B181A80FB91FA35881
:10560000BF4FF60120813181280F391FF9018181B7
:105610008C93D8018D919C91119701968D939C93B9
:10562000F801808191818430910520F36EC0882338
:1056300009F06BC0AB57BF4FF60180819181FC012F
:1056400081858C93D90156C0F80111821082A9017D
:1056500016C0FA01A081B181A80FB91FAF57BF4F83
:10566000F60120813181280F391FF90185818C9342
:10567000D8018D919C91119701968D939C93F8017F
:10568000808191818430910520F3118210829201F2
:10569000265D3F4FB901660F771F6E0D7F1D13C04A
:1056A000DB01ED91FC91E80FF91FE358FF4F480F24
:1056B000591FDA0111968C918083F80180819181C4
:1056C000019691838083D8018D919C91F601408150
:1056D00051818430910520F3D901AA0FBB1FAE0D73
:1056E000BF1D2D913C9111972B573F4FFA0181859A
:1056F000F9018083ED91FC91EA57FF4FD6018D911E
:105700009C91DC011A968C918083F60180819181B5
:105710003AE2A32EB12CA40CB51CAA0CBB1CAE0CF7
:10572000BF1CD501ED91FC91EA55FF4FDC01DA96E3
:105730006C91DA97D3968D919C91D49770E00E94EA
:10574000D07E6083D501ED91FC91E855FF4FD601E5
:105750008D919C91DC0199968C918083F501A081BB
:10576000B181A855BF4F8C91A85AB0408130D9F073
:10577000813020F0823009F08BC05DC0A157BF4F4F
:10578000F60180819181FC0183898C93D501ED9193
:10579000FC91E057FF4FD6018D919C91DC0154960E
:1057A0008C91808375C0F80111821082A50116C00A
:1057B000FA01A081B181A80FB91FA557BF4FF6010B
:1057C00020813181280F391FF90183858C93D801FD
:1057D0008D919C91119701968D939C93F8018081F6
:1057E00091818430910520F311821082A201465DDF
:1057F0005F4F440F551F4E0D5F1D16C0FA01A0816B
:10580000B181A80FB91FA957BF4FF601208131817F
:10581000280F391FF90187858C93D8018D919C91B0
:10582000119701968D939C93F8018081918184302A
:10583000910520F32DC0D8011D921C92A501F801FD
:1058400080819181FA01A081B181A80FB91FAF5663
:10585000BF4FF60120813181280F391FF901858959
:105860008C93D8018D919C91119701968D939C9367
:10587000D601ED91FC91E80FF91F25892332F9F645
:10588000D501ED91FC91E80FF91FEF56FF4F2083F2
:10589000D601ED91FC9182AD682F70E061507040AF
:1058A000F301EE0FFF1FEE0FFF1FE60DF71DE60FD2
:1058B000F71F3B96EE0FFF1FEE0DFF1DF88BEF87D6
:1058C00088249924AA24BB24A201465D5F4F440F7B
:1058D000551F4E0D5F1D32C0D8011D921C9216C07F
:1058E000FA0120813181280F391F2A0D3B1DA80F95
:1058F000B91F8C91D9011C968C930894811C911C22
:10590000F80180819181019691838083D8018D91E6
:105910009C91EF85F889A081B181AC59BF4F2D9141
:105920003C911197A456B04082179307C8F2A20E7B
:10593000B31E615070403297F88BEF87FFEF6F3FD7
:105940007F0751F69201265D3F4F220F331F2E0D28
:105950003F1DF901A081B181A059BF4F11969C92C2
:105960008E92A057B040E985FA858081823009F097
:1059700044C0AC58BF4FF60180819181FC0184A5E1
:105980008C93D901ED91FC91EB58FF4FD6018D918D
:105990009C91DC019D968C918083D901ED91FC91C5
:1059A000EA58FF4FD6018D919C91DC019E968C9117
:1059B0008083D901ED91FC91E958FF4FD6018D917B
:1059C0009C91DC019F968C918083D901ED91FC9193
:1059D000E858FF4FD6018D919C91DC01D0968C91B7
:1059E0008083D901ED91FC91E758FF4FD6018D914D
:1059F0009C91DC01D1968C918083F80111821082F8
:105A00005301AA0CBB1CAA0CBB1CA60CB71C1CC0C7
:105A1000EA0DFB1D3B96EE0FFF1FEE0DFF1D808173
:105A200091810E940380D8018D919C911197F5017D
:105A3000E80FF91F3B96EE0FFF1FEE0DFF1D1182C1
:105A4000108201968D939C93D801ED91FC91E530E5
:105A5000F105F0F2D601ED91FC9115AA16AA17AA4C
:105A600010AECF010E940380F6011182108277C030
:105A700092AD83AD981709F072C0D8011D921C92A7
:105A80005301AA0CBB1CAA0CBB1CA60CB71C1CC047
:105A9000EA0DFB1D3B96EE0FFF1FEE0DFF1D8081F3
:105AA00091810E940380F80180819181F501E80FC6
:105AB000F91F3B96EE0FFF1FEE0DFF1D11821082A6
:105AC0000196D8018D939C93D801ED91FC91E5301E
:105AD000F105F0F22DC0F801118210825301AA0CD9
